:100000000C9442050C9488050C9488050C94880582
:100010000C9488050C9488050C9488050C9488052C
:100020000C9488050C9488050C94B30C0C94890DE1
:100030000C94861B0C9488050C9488050C948805F8
:100040000C9488050C9488050C9488050C948805FC
:100050000C9488050C94F91B0C9488050C94880565
:100060000C9488050C9488050C9488050C948805DC
:100070000C9488050C9488050C9488050C948805CC
:100080000C9488050C9488050C9488050C948805BC
:100090000C9488050C948805F20D140EFF0E140EB6
:1000A000FF0E560E790EFF0ECE0EE10E2512251212
:1000B00053125312AF12EB12DC14DC140313DC14D2
:1000C000FA13FA13B614DC14DC14CA14F1A64B4E5E
:1000D0002425264A4D504F212223E738294F1E1F41
:1000E000202965292927372A1E280A00253031367C
:1000F00062003A200025303258000A722F63203007
:100100003132333435363738394142434445460A73
:10011000000A002530325800626F756E6365213A1F
:1001200020005B735D004B6579626F6172642073C0
:10013000746172742E0A0055534220636F6E6669B3
:1001400067757265642E0A005B575D005B535D0046
:100150005B525D005B445D005B435D000A0347004A
:10016000480036003000000012036700650065009B
:100170006B006800610063006B0000000403090469
:1001800009027400040100A0320904000001030107
:100190000100092111010001223F00070581030828
:1001A000000A0904010001030102000921110100F4
:1001B00001224D000705820308000A09040200011C
:1001C0000300000009211101000122360007058308
:1001D0000308000A090403000203000000092111BA
:1001E0000100012220000705840320000107050407
:1001F000032000011201100100000008EDFE606004
:100200000100010200010631FF0974A10109751501
:100210000025FF9520750881020976150025FF95B8
:100220002075089102C005010980A101850216010F
:100230000026B7001A01002AB70075109501810049
:10024000C0050C0901A1018503160100269C021AB4
:1002500001002A9C02751095018100C00501090268
:10026000A1010901A10005091901290515002501B0
:10027000950575018102950175038101050109301C
:1002800009311581257F9502750881060938158188
:10029000257F950175088106050C0A380215812510
:1002A0007F950175088106C0C005010906A10105F9
:1002B0000719E029E71500250195087501810295C8
:1002C0000175088101050819012905950575019138
:1002D000029501750391010507190029FF150025F5
:1002E000FF950675088100C00A00253032582000AD
:1002F0006B6579626F6172645F7265706F72743A78
:1003000020004C45443A20253032580A00646F6E74
:10031000652E0A00626F6F746D6167696320736395
:10032000616E3A202E2E2E2000290A002575002FFE
:10033000002575005D28002564002000256400204C
:100340000025640020002564007C00253032580020
:100350006D6F7573656B6579205B62746E7C782058
:1003600079207620685D287265702F61636C293A68
:10037000205B006D6B5F776865656C5F74696D65A8
:100380005F746F5F6D6178203D2025640A006D6B9E
:100390005F776865656C5F6D61785F7370656564D4
:1003A000203D2025640A006D6B5F74696D655F7484
:1003B0006F5F6D6178203D2025640A006D6B5F6D75
:1003C00061785F7370656564203D2025640A006D67
:1003D0006B5F696E74657276616C203D2025640ADE
:1003E000006D6B5F64656C6179203D2025640A00B7
:1003F0006D6B5F776865656C5F74696D655F746F61
:100400005F6D6178203D2025640A006D6B5F776821
:1004100065656C5F6D61785F7370656564203D2014
:1004200025640A006D6B5F74696D655F746F5F6D45
:100430006178203D2025640A006D6B5F6D61785FF7
:100440007370656564203D2025640A006D6B5F69EB
:100450006E74657276616C203D2025640A006D6BB8
:100460005F64656C6179203D2025640A000A0025DF
:100470007500363A20776865656C5F74696D655FF5
:10048000746F5F6D61783A20000A00257500353A77
:1004900020776865656C5F6D61785F737065656412
:1004A0003A20000A00257500343A2074696D655FB2
:1004B000746F5F6D61783A20000A00257500333A49
:1004C000206D61785F73706565643A20000A0025CD
:1004D0007500323A20696E74657276616C286D73AE
:1004E000293A20000A00257500313A2064656C61C4
:1004F00079282A31306D73293A20000A092D2056B7
:10050000616C756573202D0A004D3E004D25643EDB
:1005100020003F007365742064656661756C740A21
:1005200000433E200077686572652064656C7461E5
:100530003A20637572736F723D25642C207768656D
:10054000656C3D25640A53656520687474703A2FA4
:100550002F656E2E77696B6970656469612E6F72A5
:10056000672F77696B692F4D6F7573655F6B657961
:10057000730A000A092D204D6F7573656B6579202C
:100580002D0A4553432F713A09717569740A313A3E
:100590000964656C6179282A31306D73290A323A11
:1005A00009696E74657276616C286D73290A333A35
:1005B000096D61785F73706565640A343A0974691E
:1005C0006D655F746F5F6D61780A353A09776865AC
:1005D000656C5F6D61785F73706565640A363A09B2
:1005E000776865656C5F74696D655F746F5F6D6179
:1005F000780A0A703A097072696E742076616C75B7
:1006000065730A643A097365742064656661756C84
:1006100074730A75703A092B310A646F776E3A0960
:100620002D310A706775703A092B31300A70676492
:100630006F776E3A092D31300A0A73706565642050
:100640003D2064656C7461202A206D61785F737051
:10065000656564202A2028726570656174202F20EA
:1006600074696D655F746F5F6D6178290A003F0082
:100670004D3E2000433E20004C25640A000A092D0F
:1006800020436F6E736F6C65202D0A4553432F71A5
:100690003A09717569740A6D3A096D6F7573656B06
:1006A00065790A000A092D204D61676963202D0ACA
:1006B000643A0964656275670A783A096465627527
:1006C00067206D61747269780A6B3A0964656275B6
:1006D00067206B6579626F6172640A6D3A096465BF
:1006E000627567206D6F7573650A763A0976657273
:1006F00073696F6E0A733A097374617475730A6370
:100700003A09636F6E736F6C65206D6F64650A30B4
:100710002D343A096C61796572302D3428463130B8
:100720002D4634290A506175733A09626F6F746CF3
:100730006F616465720A653A09656570726F6D0A6A
:10074000000A002575002E6E6B726F3A20000A00B9
:100750002575002E737761705F6261636B736C61E6
:1007600073685F6261636B73706163653A20000A4E
:10077000002575002E737761705F67726176655F23
:100780006573633A20000A002575002E6E6F5F675F
:1007900075693A20000A002575002E737761705F35
:1007A00072616C745F726775693A20000A00257582
:1007B000002E737761705F6C616C745F6C67756934
:1007C0003A20000A002575002E636170736C6F6318
:1007D0006B5F746F5F636F6E74726F6C3A20000AA8
:1007E000002575002E737761705F636F6E74726F92
:1007F0006C5F636170736C6F636B3A20000A002555
:10080000303258006B65796D61705F636F6E666939
:10081000672E7261773A20000A002575002E6D6FF1
:100820007573653A20000A002575002E6B657962A4
:100830006F6172643A20000A002575002E6D6174A4
:100840007269783A20000A002575002E656E616293
:100850006C653A20000A00253032580064656275E4
:10086000675F636F6E6669672E7261773A20000A70
:100870000025750064656661756C745F6C617965EF
:10088000723A20003F0074696D65725F7265616441
:10089000333228293A202530346C580A006B6579A8
:1008A000626F6172645F69646C653A2025580A0062
:1008B0006B6579626F6172645F70726F746F636F82
:1008C0006C3A2025580A00686F73745F6B65796213
:1008D0006F6172645F6C65647328293A2025580A39
:1008E000000A092D20537461747573202D0A004786
:1008F00043433A20342E382E32204156522D4C4953
:1009000042433A20312E382E3073766E20415652B3
:100910005F415243483A2061767235310A004F50A8
:1009200054494F4E533A204C55464120424F4F5464
:100930004D41474943204D4F5553454B455920455F
:10094000585452414B455920434F4E534F4C45202C
:10095000434F4D4D414E4420343039360A00425504
:10096000494C443A20373538353438372D6469726C
:100970007479202832333A33303A3134204A616E68
:100980002032382032303137290A005649443A2083
:10099000307846454544286765656B6861636B2917
:1009A000205049443A20307836303630284748368F
:1009B0003029205645523A203078303030310A0004
:1009C000444553433A20742E6D2E6B2E206B65796F
:1009D000626F617264206669726D7761726520660C
:1009E0006F7220474836300A000A092D205665727A
:1009F00073696F6E202D0A000A6D6F7573653A205A
:100A00006F66660A000A6D6F7573653A206F6E0A2D
:100A1000000A6B6579626F6172643A206F66660ADC
:100A2000000A6B6579626F6172643A206F6E0A002A
:100A30000A6D61747269783A206F66660A000A6D01
:100A400061747269783A206F6E0A000A6465627593
:100A5000673A206F6E0A000A64656275673A206F14
:100A600066660A000A0A626F6F746C6F6164657271
:100A70002E2E2E2000433E20006565636F6E666952
:100A8000673A0A0011241FBECFEFD0E2DEBFCDBF10
:100A900004B603FE24C08091BE019091BF01A091D5
:100AA000C001B091C1018730904BA740B04BB9F461
:100AB0001092BE011092BF011092C0011092C101AC
:100AC00014BE84B7877F84BF88E10FB6F894809303
:100AD0006000109260000FBEE0E0F8EF099511E0B1
:100AE000A0E0B1E0EEEFF0E500E00BBF02C0079040
:100AF0000D92A233B107D9F711E0A2E3B1E001C032
:100B00001D92AE3BB107E1F70E94EA090C947D28E3
:100B10000C940000FF93EF93E0913201F0913301C8
:100B2000309709F00995EF91FF910895FC018591A7
:100B3000803011F0EFDFFBCF0895FF27E0E230E2D5
:100B400047FF0CC0419597FF09C0EDE26095709595
:100B500080959095611D711D811D911D27FF02C01B
:100B6000219530E350E2AA27660F771F881F991F4F
:100B7000AA1FA41710F0A41B63955A95A9F7AA30D1
:100B800008F0A95FA05DAF93F3956115710581052C
:100B9000910541F7ED3211F4EF93F395F21718F444
:100BA0003F93F395FBCF8F91B5DFFA95E1F7089569
:100BB000E991F9918591803021F0853219F0AADF11
:100BC000F9CF089520E0E89455915532C1F35033A0
:100BD00011F4689455915A3348F4505390F3220F0E
:100BE000022E220F220F200D250FF4CF0EF4219597
:100BF00089919991533619F3533729F1533559F1A6
:100C0000BC0188279927E8945C3621F48991999151
:100C100068945591543639F446EF7EF077FF0DC055
:100C20008FEF9FEF0AC055374AE039F0583540E161
:100C300021F0523642E009F00895FF93EF937DDFF3
:100C4000EF91FF91B7CFFF93EF93FC01819180303B
:100C5000B9F360DFFBCFFF93EF9368DFF1CFDF9352
:100C6000CF93CDB7DEB72596A3DFCF91DF9108955F
:100C700097E0799FF00111249CE1899FE00DF11D1F
:100C80001124E60FF11DE253FF4F84910895E82FE0
:100C9000F0E0EE0FFF1FE45BF04085919491089522
:100CA0008AB1817E8AB98BB1817E8BB908950E9409
:100CB000500684B1817084B985B18E6F85B984B1D5
:100CC000837084B985B18C6F85B984B1877084B91C
:100CD00085B1886F85B984B18F7084B985B1806F13
:100CE00085B984B18F7184B985B1806E85B984B1BD
:100CF0008F7384B985B1806C85B927982F9A10922B
:100D0000380110923401109239011092350110927D
:100D10003A011092360110923B011092370108956A
:100D2000DF92EF92FF920F931F93CF93DF93C4E371
:100D3000D1E0F12CEE24E39485E0D82E03E111E01C
:100D400082E0F81661F093E0F91661F081E0F816A0
:100D500019F0519A599808C0529A5A9805C0539A56
:100D60005B9802C0549A5C9890EA9A95F1F783B127
:100D7000869581708E251A9B02C040E001C042E03A
:100D8000842B1B9B02C040E001C044E0482B1C9B0D
:100D900002C030E001C038E0942F932B1D9B02C0AD
:100DA00020E001C020E1922B1E9B02C020E001C088
:100DB00020E2922B83B18095881F8827881F829517
:100DC000880F880F807C982B8881891739F1988348
:100DD00080910001882301F180919F0180FF04C070
:100DE00088E191E00E94960580919F0180FF0CC0F0
:100DF000809100011F928F931F930F930E942F06E3
:100E00000F900F900F900F9080919F0180FF04C072
:100E100081E191E00E949605D09200010E94500667
:100E2000F394219684E0F8128BCF809100018823FF
:100E3000E1F0815080930001882339F08FE99FE031
:100E40000197F1F700C0000010C080913401809339
:100E5000380180913501809339018091360180936A
:100E60003A018091370180933B0181E0DF91CF917E
:100E70001F910F91FF90EF90DF900895E82FF0E021
:100E8000E85CFE4F80810895CF92DF92EF92FF924F
:100E90000F931F93CF93DF938AEF90E00E94960504
:100EA00098E3E92E91E0F92EC0E0D0E025EFC22EC4
:100EB00020E0D22E0CEE10E0DF93CF93DF92CF92A2
:100EC0000E942F0682EF90E00E949605F701819123
:100ED0007F0190E00E94191B9F938F931F930F93A4
:100EE0000E942F068AEE90E00E94960521968DB70B
:100EF0009EB708960FB6F8949EBF0FBE8DBFC43044
:100F0000D105D1F6DF91CF911F910F91FF90EF9016
:100F1000DF90CF90089581FF02C03A9A01C03A98BD
:100F2000429808958091470108959FB7F8941092D0
:100F30003E019FBF9091B401943009F058C0909148
:100F4000E9009F702091EC0020FF02C020E801C062
:100F500020E0292B94E09093E9009091EB0090FF22
:100F600043C09091EE0097FF3FC090913C019923C0
:100F700021F09091E80095FF37C010923C0196E077
:100F80003091E80035FD15C03091B401343061F581
:100F90003091EB0035FD28C0915021F481E0809321
:100FA0003C0122C0EFE9FFE03197F1F700C00000FB
:100FB000E7CF8093F1008091E80085FD0AC0809121
:100FC000E80080FFFCCF8091E8008E778093E800F6
:100FD00006C08FB7F89491E090933E018FBF2F70B9
:100FE0002093E90080E008952F702093E9008FEFAF
:100FF0000895CF93DF9300D01F92CDB7DEB7209135
:10100000B401243019F523E029839B838A8320933C
:10101000E9008FEF9091E800815095FD06C095EDB5
:101020009A95F1F700008111F5CF8091E80085FFD6
:101030000DC040E050E063E070E0CE0101960E94F8
:10104000A90A8091E8008E778093E8000F900F90B6
:101050000F90DF91CF910895CF93DF9300D01F922F
:10106000CDB7DEB72091B401243021F522E02983E9
:101070009B838A8383E08093E9008FEF9091E8005F
:10108000815095FD06C095ED9A95F1F7000081110C
:10109000F5CF8091E80085FF0DC040E050E063E0AF
:1010A00070E0CE0101960E94A90A8091E8008E7737
:1010B0008093E8000F900F900F90DF91CF910895EB
:1010C0002091B4012430F1F422E02093E9002FEFC5
:1010D0003091E800215035FD06C035ED3A95F1F725
:1010E00000002111F5CF2091E80025FF0BC040E062
:1010F00050E065E070E00E94A90A8091E8008E77D8
:101100008093E8000895CF93DF93EC018091B401C0
:10111000843039F581E08093E9008FEF9091E80009
:10112000815095FD06C095ED9A95F1F7000081116B
:10113000F5CF8091E80085FF14C040E050E068E002
:1011400070E0CE010E94A90A8091E8008E7780931A
:10115000E80088E0FE01AFE3B1E001900D928A95CE
:10116000E1F7DF91CF91089588E591E00E9496051F
:101170008091B301811109C00E94350C0E94970C27
:101180008091E20084608093E200089584E591E01C
:101190000E9496051092B301089580E591E00C94A9
:1011A000960580913D018F5F80933D0162E30E942F
:1011B0001228911135C010923D0180913E01882383
:1011C00079F18091B401843049F58091E9008F7004
:1011D0009091EC0090FF02C090E801C090E0982B45
:1011E00084E08093E9008091EB0080FF14C080913F
:1011F000EE0087FF10C08091E80085FF03C01092C9
:10120000F100F9CF8091E80080FF05C08091E800EF
:101210008E778093E8009F709093E90010923E01D2
:10122000089542E061EC81E00E94AF0B42E061EC86
:1012300082E00E94AF0B42E061EC83E00E94AF0BC2
:1012400042E261EC84E00C94AF0B8091B6018330F4
:1012500009F453C030F4813071F0823009F48CC04D
:1012600008958A3009F478C08B3009F45EC0893063
:1012700009F09AC020C08091B501813A09F094C06C
:101280008091E800877F8093E8008091B901909178
:10129000BA01892B21F060E080E090E003C068E0B3
:1012A0008FE391E070E00E94F20A8091E8008B7772
:1012B0008093E80008958091B501813209F074C0EF
:1012C0008091B9019091BA01892B09F06DC080918C
:1012D000E800877F8093E8008091E80082FD05C0E8
:1012E0008091B4018111F8CF5FC08091F1008093AB
:1012F00047018091E8008B7753C08091B501813A16
:1013000009F052C08091B9019091BA01892B09F07E
:101310004BC08091E800877F8093E8008091E800CF
:1013200080FFFCCF80910B0136C08091B5018132E6
:10133000D9F58091B9019091BA01892BA9F58091D5
:10134000E800877F8093E8000E94E40B8091B7015A
:1013500080930B010C94FD148091B501813221F52D
:101360008091E800877F8093E8000E94E40B8091E1
:10137000B8018093480108958091B501813AA1F4A4
:101380008091E800877F8093E8008091E80080FFEB
:10139000FCCF809148018093F1008091E8008E7726
:1013A0008093E8000C94E40B08950895089508953F
:1013B0008CE491E00E9496050C94D7090E94471B8B
:1013C0008091B201882329F00E946F1B81110C9437
:1013D000930A089584B7877F84BF88E10FB6F89495
:1013E00080936000109260000FBE90E080E80FB61E
:1013F000F89480936100909361000FBE0E94D5091C
:101400000E94A50F0E94350C0E94970C8091E2006B
:1014100084608093E20085E997E00E94021B789443
:101420008091B4018430E1F787E391E00E94960552
:101430000E94A70F81E091E00E94170F86E291E0E1
:101440000E9496050E94D6098091B401853039F436
:1014500082E291E00E9496050E94DE09F5CF0E948B
:10146000AD0FF2CF0C94841B88E491E00E949605A6
:101470000C94320A292F332723303105A9F06CF45C
:101480002130310509F442C02230310509F043C052
:1014900084E790E020E831E042C021323105C9F014
:1014A0002232310519F137C099278130910541F079
:1014B0008230910541F0892B71F5ECE7F1E005C030
:1014C000E8E6F1E002C0ECE5F1E0849190E09F01F4
:1014D00026C0643000F5E62FF0E0EE0FFF1FE05E5F
:1014E000FE4F2081318189E090E019C0643098F48A
:1014F000E62FF0E0DF01AA0FBB1FA85EBE4F2D91C3
:101500003C91EC5EFE4F808190E009C082E190E06A
:1015100024EF31E004C080E090E020E030E0FA0108
:1015200031832083089584E189BD86E189BD09B4B2
:1015300000FEFDCF8091D8008F7D8093D8008091F0
:10154000E00082608093E0008091E00081FDFCCFAC
:101550000895CF92DF92EF92FF920F931F93CF9354
:10156000DF937C018B01EA010E94050C811131C0DF
:10157000209731F088819981081B190BE80EF91E1C
:10158000C12CD12C0115110519F18091E80085FDC0
:1015900014C08091E8008E778093E800209741F096
:1015A000888199818C0D9D1D9983888385E011C068
:1015B0000E94050C882331F30CC0F70181917F0153
:1015C0008093F10001501109FFEFCF1ADF0ADACF43
:1015D00080E0DF91CF911F910F91FF90EF90DF900E
:1015E000CF9008952091BB013091BC012617370799
:1015F00048F06115710539F42091E8002E772093A9
:10160000E80001C0B901FC0120E06115710599F104
:101610008091B4018823E9F18530E9F18091E800F7
:1016200083FD3BC08091E80082FF06C08091E80006
:1016300082FF24C080E008958091E80080FFE5CF1C
:101640008091F2009091F3006115710551F088309E
:10165000910538F421912093F100615071090196B0
:10166000F3CF21E0089709F020E08091E8008E7721
:101670008093E800CACF2111CBCFD8CF8091B4019D
:10168000882339F0853039F08091E80083FFCECF90
:1016900004C082E0089583E0089581E008952091D8
:1016A000BB013091BC012617370748F06115710561
:1016B00039F42091E8002E772093E80001C0B901A9
:1016C000FC0120E061157105B1F18091B40188231E
:1016D00009F43FC0853009F43EC08091E80083FDE5
:1016E0003CC08091E80082FF06C08091E80082FF44
:1016F00025C080E008958091E80080FFE3CF8091CD
:10170000F2009091F3006115710559F08830910550
:1017100040F424912093F1003196615071090196B3
:10172000F2CF21E0089709F020E08091E8008E7761
:101730008093E800C7CF2111C8CFD7CF8091B401E3
:10174000882339F0853039F08091E80083FFCDCFD0
:1017500004C082E0089583E0089581E00895982F01
:10176000973058F59093E900981739F07091EC0094
:101770002091ED005091F00003C0242F762F50E00F
:1017800021FF19C03091EB003E7F3093EB00309188
:10179000ED003D7F3093ED003091EB0031603093F0
:1017A000EB007093EC002093ED005093F00020913B
:1017B000EE0027FF07C09F5FD3CF8F708093E900B3
:1017C00081E0089580E008958091B50187FD05C00E
:1017D0008091E80080FF0EC012C08091E80082FD79
:1017E00005C08091B4018111F8CF08958091E8007F
:1017F0008B7708C08091B4018111EACF0895809160
:10180000E8008E778093E80008958091E40090913D
:10181000E50045E62091EC0020FF21C02091E80082
:1018200020FD21C02091B401222389F0253089F0C8
:101830002091EB0025FD0FC02091E4003091E500E0
:101840002817390739F3415041F0C901E3CF82E04D
:10185000089583E0089581E0089584E0089520913B
:10186000E80022FFDFCF80E008950E94A60C0E94CE
:10187000AE0CE0EEF0E0808181608083E8EDF0E086
:1018800080818F77808319BCA7EDB0E08C918E7F2B
:101890008C9380818F7E80831092B30108950F9383
:1018A0001F93CF93DF930E94A60C0E94AE0CC8ED4D
:1018B000D0E088818F778883888180688883888159
:1018C0008F7D8883E7EDF0E080818068808319BC9C
:1018D0001092B4011092B0011092B2011092B101B5
:1018E00000EE10E0F80180818B7F80838881816029
:1018F000888342E060E080E00E94AF0BE1EEF0E020
:1019000080818E7F8083E2EEF0E080818160808341
:10191000808188608083F80180818E7F80838881C8
:1019200080618883DF91CF911F910F910895E8ED39
:10193000F0E080818F7E8083E7EDF0E08081816040
:10194000808381E08093B3010C944F0CE8EDF0E0CC
:1019500080818C7F80831092E20008951092DA00DB
:101960001092E10008951F920F920FB60F9211246A
:101970000BB60F922F933F934F935F936F937F9389
:101980008F939F93AF93BF93EF93FF938091E10069
:1019900082FF0BC08091E20082FF07C08091E100CE
:1019A0008B7F8093E1000E94D1088091DA0080FF54
:1019B0001FC08091D80080FF1BC08091DA008E7F0D
:1019C0008093DA008091D90080FF0DC084E189BD49
:1019D00086E189BD09B400FEFDCF81E08093B401AA
:1019E0000E94B40805C019BC1092B4010E94C60838
:1019F0008091E10080FF19C08091E20080FF15C056
:101A00008091E2008E7F8093E2008091E20080610D
:101A10008093E2008091D80080628093D80019BC46
:101A200085E08093B4010E94D8098091E10084FF91
:101A300030C08091E20084FF2CC084E189BD86E142
:101A400089BD09B400FEFDCF8091D8008F7D8093C1
:101A5000D8008091E1008F7E8093E1008091E200C8
:101A60008F7E8093E2008091E20081608093E200AB
:101A70008091B001882311F084E007C08091E300D9
:101A800087FF02C083E001C081E08093B4010E941F
:101A9000340A8091E10083FF29C08091E20083FF36
:101AA00025C08091E100877F8093E10082E08093F0
:101AB000B4011092B0018091E1008E7F8093E1002B
:101AC0008091E2008E7F8093E2008091E20080614D
:101AD0008093E20042E060E080E00E94AF0B8091E2
:101AE000F00088608093F0000E94CD08FF91EF9194
:101AF000BF91AF919F918F917F916F915F914F9126
:101B00003F912F910F900BBE0F900FBE0F901F9023
:101B100018951F920F920FB60F9211240BB60F92C9
:101B20002F933F934F935F936F937F938F939F93E5
:101B3000AF93BF93CF93EF93FF93C091E900CF7022
:101B40008091EC001092E9008091F000877F8093F3
:101B5000F00078940E94C90D1092E9008091F00085
:101B600088608093F000C093E900FF91EF91CF91DE
:101B7000BF91AF919F918F917F916F915F914F91A5
:101B80003F912F910F900BBE0F900FBE0F901F90A3
:101B900018951F93CF93DF93CDB7DEB7AA970FB6F3
:101BA000F894DEBF0FBECDBFE5EBF1E08091F10010
:101BB000819321E0ED3BF207C9F70E94250980914E
:101BC000E80083FF1CC12091B5013091B601832F3D
:101BD00090E08A30910508F012C1FC01E45BFF4FF0
:101BE0000C943228203881F0223809F008C1809105
:101BF000B9018F708093E9008091EB0085FB882705
:101C000080F91092E90006C08091B1019091B20173
:101C1000911182609091E800977F9093E800809303
:101C2000F1001092F100C5C0822F8D7F09F0E7C04E
:101C3000222319F0223061F0E2C08091B701813097
:101C400009F0DDC0333009F080E08093B20128C094
:101C50008091B701811124C02091B9012F7009F43E
:101C6000CEC02093E9008091EB0080FF19C08091E5
:101C7000EB00333011F4806211C080618093EB007F
:101C800081E090E0022E01C0880F0A94EAF7809369
:101C9000EA001092EA008091EB0088608093EB00EC
:101CA0001092E9008091E800877F86C02111A7C0CB
:101CB0001091B7011F778091E3008078812B80938A
:101CC000E3008091E800877F8093E8000E94E40BA6
:101CD0008091E80080FFFCCF8091E30080688093D2
:101CE000E300112311F083E001C082E08093B4018E
:101CF00086C02058223008F082C08091B7019091B0
:101D0000B8018C3D23E0920779F583E08A838AE26B
:101D100089834FB7F894DE01139620E03EE051E24C
:101D2000E32FF0E050935700E49120FF03C0E295C9
:101D3000EF703F5FEF708E2F90E0EA3010F0C796A3
:101D400001C0C0968D939D932F5F243149F74FBFFB
:101D50008091E800877F8093E8006AE270E0CE011E
:101D600001960E94F20A14C0AE014F5F5F4F60916E
:101D7000B9010E943A0A009709F441C02091E80095
:101D8000277F2093E800BC0189819A810E944F0B34
:101D90008091E8008B778093E80031C0203879F596
:101DA0008091E800877F8093E8008091B001809364
:101DB000F1008091E8008E778093E8000E94E40BA8
:101DC0001EC021111CC09091B7019230C0F48091C7
:101DD000E800877F8093E8009093B0010E94E40BB5
:101DE0008091B001811104C08091E30087FF02C09F
:101DF00084E001C081E08093B4010E9411098091C8
:101E0000E80083FF0AC08091E800877F8093E800A4
:101E10008091EB0080628093EB00AA960FB6F89455
:101E2000DEBF0FBECDBFDF91CF911F91089590937C
:101E30004E0180934D010895E0914D01F0914E01C6
:101E4000309721F00190F081E02D099480E0089511
:101E5000FF920F931F93CF93DF938C01E0914D017D
:101E6000F0914E01309799F10280F381E02D0995B0
:101E700080919F0182FF2BC080FF04C080EF92E021
:101E80000E949605E80188E0F82E0AEE12E08091A3
:101E90009F0180FF0BC088811F928F931F930F9328
:101EA0000E942F060F900F900F900F90FA9421969A
:101EB000F110EDCF80919F0180FF09C088EE92E084
:101EC000DF91CF911F910F91FF900C949605DF91B8
:101ED000CF911F910F91FF900895E0914D01F091E6
:101EE0004E01309721F00480F581E02D099408958A
:101EF00020914B0130914C018217930771F0909320
:101F00004C0180934B01E0914D01F0914E013097CF
:101F100021F00680F781E02D099408952091490170
:101F200030914A018217930771F090934A01809390
:101F30004901E0914D01F0914E01309721F000846C
:101F4000F185E02D0994089508950C94A40F0E9442
:101F5000AF1B0E9457060C94C81DCF92DF92EF92E0
:101F6000FF920F931F93CF93DF9300D000D000D048
:101F7000CDB7DEB70E94900630E5E32E31E0F32EB8
:101F800000E010E0C02E802F0E943E07F701D190A4
:101F90007F01D826B1F40F5F1F4F0430110591F770
:101FA0008FEF89838A831B820E94B81B8160782F00
:101FB0009D838C8349815A816B818D810E946C1035
:101FC00048C090919F0191FF04C08E830E944407F6
:101FD0008E8120E030E04D2D50E0922FBA01022E8C
:101FE00002C0759567950A94E2F760FF2CC02983BB
:101FF000CA82EE24E394F12C02C0EE0CFF1C9A95E9
:10200000E2F790E08E219F2121E0892B09F420E066
:102010002B830E94B81B8160782F9D838C8349811C
:102020005A816B818D810E946C1049815A816B812C
:102030007C818D810E94351BF801E05BFE4F808121
:102040008E25808306C02F5F3F4F2730310529F64C
:10205000A2CF0E94341B0E94482110914F010E9480
:102060001C0F181741F10E941C0F80934F01909193
:102070009F0192FF0EC090FF0CC01F928F9382E0D1
:1020800093E09F938F930E942F060F900F900F90D5
:102090000F9080914F0126960FB6F894DEBF0FBEC9
:1020A000CDBFDF91CF911F910F91FF90EF90DF9007
:1020B000CF900C94441B26960FB6F894DEBF0FBE4B
:1020C000CDBFDF91CF911F910F91FF90EF90DF90E7
:1020D000CF9008950C948B07CF93DF93CDB7DEB7E5
:1020E0002B970FB6F894DEBF0FBECDBF4F83588736
:1020F00069877A878B878A859B85892B31F05F3F3B
:1021000011F080E003C04F3FE1F781E0811107C08B
:102110004F81588569857A858B850E94351BDE0144
:10212000119686E0FD0111928A95E9F785E0FE019E
:10213000379601900D928A95E1F749815A816B811A
:102140007C818D819E810E94C9172B960FB6F894D1
:10215000DEBF0FBECDBFDF91CF910895CF93C82FC3
:10216000882309F4CCC0823859F40E941C0F81FDE9
:10217000C6C089E30E945B1A0E94DC1A89E30CC086
:10218000833879F40E941C0F80FDB9C083E50E945A
:102190005B1A0E94DC1A83E50E947C1ACF910C9492
:1021A000DC1A843859F40E941C0F82FDA8C087E411
:1021B0000E945B1A0E94DC1A87E4EECF8CEF8C0F32
:1021C000813A48F48C2F0E949E25811198C08C2F53
:1021D0000E945B1AE3CF80E28C0F883048F4C7700E
:1021E00081E001C0880FCA95EAF70E94A01AD6CFF5
:1021F0008BE58C0F833078F4C53A29F0C63A31F478
:1022000082E890E005C081E890E002C083E890E0B9
:10221000CF910C94780F88E58C0F853108F06FC052
:10222000C83A61F1C93A69F1CA3A71F1CB3A79F128
:10223000CC3A81F1CD3A89F1CE3A91F1CF3A99F188
:10224000C13BA1F1C03BA9F1C23BB1F1C33BB9F124
:10225000C43BC1F1C53BC9F1C63BD1F1C73BD9F184
:10226000C83BE1F1C93BE9F1CA3BF1F1CB3BF9F1E4
:10227000CC3B09F03FC08AE292E03EC082EE90E0A3
:102280003BC089EE90E038C08AEE90E035C085EB27
:1022900090E032C086EB90E02FC083EB90E02CC042
:1022A00084EB90E029C087EB90E026C08CEC90E0B6
:1022B00023C08DEC90E020C083E891E01DC08AE847
:1022C00091E01AC082E991E017C084E991E014C05E
:1022D00081E292E011C083E292E00EC084E292E0DB
:1022E0000BC085E292E008C086E292E005C087E27A
:1022F00092E002C080E090E0CF910C948E0FCF91DD
:102300000895882309F44BC0823859F40E941C0FA9
:1023100081FF45C089E30E945B1A0E94DC1A89E3B1
:102320000CC0833871F40E941C0F80FF38C083E515
:102330000E945B1A0E94DC1A83E50E947C1A0C94AE
:10234000DC1A843859F40E941C0F82FF28C087E4ED
:102350000E945B1A0E94DC1A87E4EFCF9CEF980F73
:10236000913A58F390E2980F983050F4877091E0CA
:1023700001C0990F8A95EAF7892F0E94A61ADFCF2C
:102380009BE5980F933020F480E090E00C94780F58
:10239000885A853120F480E090E00C948E0F0895E7
:1023A000882321F00E94A01A0C94DC1A0895882337
:1023B00021F00E94A61A0C94DC1A0895CF92DF92A5
:1023C000EF92FF920F931F93CF93DF93CDB7DEB7BA
:1023D00028970FB6F894DEBF0FBECDBF8C0185E005
:1023E000F801DE01119601900D928A95E1F7F8014E
:1023F00040813181F280258122952F7083819481E3
:10240000892B31F03F3F31F481E04F3F19F403C095
:1024100081E001C080E080FDCFC249833A83898199
:102420009A812F830E94191A9E8388870E94181A06
:102430000E9420194E81E42FE295EF70F0E0EA5AF5
:10244000FF4F2F8168850C943228842F807F142FB2
:102450001F70882311F01295107FFF2059F011236F
:1024600009F45FC2812F68870E94B31A0E94DC1AA8
:10247000688557C2862F0E948111112309F49CC2DE
:10248000812F0E94B91A28960FB6F894DEBF0FBEAE
:10249000CDBFDF91CF911F910F91FF90EF90DF9013
:1024A000CF900C94DC1A842F807F942F9F70E92E9C
:1024B000803219F0E29480EFE822662319F061304F
:1024C00001F129C0FF20A9F08E2D222349F12130EE
:1024D00039F528960FB6F894DEBF0FBECDBFDF9159
:1024E000CF911F910F91FF90EF90DF90CF900C94C0
:1024F000C31A222319F0213009F45EC20E94C61AC1
:102500002CC0FF20E9F0263008F056C20E949D1A28
:102510008E2129F022C0FF20F1F0211115C08E2D4F
:1025200028960FB6F894DEBF0FBECDBFDF91CF91D6
:102530001F910F91FF90EF90DF90CF900C94D011EE
:10254000253008F039C209C0F801858180FFE9C152
:102550008F708583E4CF2111F8C18E2D66C1242FA1
:1025600026952695237030E02115310521F0213084
:102570003105C9F021C2FF2021F0862F942F9370DE
:1025800002C080E090E028960FB6F894DEBF0FBE40
:10259000CDBFDF91CF911F910F91FF90EF90DF9012
:1025A000CF900C94780FFF2021F0862F942F9370FA
:1025B00002C080E090E028960FB6F894DEBF0FBE10
:1025C000CDBFDF91CF911F910F91FF90EF90DF90E2
:1025D000CF900C948E0F862FFF2019F00E94CE1FF3
:1025E00002C00E94362028960FB6F894DEBF0FBEB8
:1025F000CDBFDF91CF911F910F91FF90EF90DF90B2
:10260000CF900C94BB20842F837009F076C0F1101A
:10261000D3C1262F229526952770220F220F862FB1
:102620008F70C82ED12CE12CF12C022E04C0CC0CC2
:10263000DD1CEE1CFF1C0A94D2F764FF10C06FE093
:1026400070E080E090E004C0660F771F881F991F3C
:102650002A95D2F7609570958095909503C060E0BB
:1026600070E0CB01242F269526952370422F50E051
:1026700042305105D1F04330510559F16C297D2983
:102680008E299F294130510541F128960FB6F894C3
:10269000DEBF0FBECDBFDF91CF911F910F91FF9095
:1026A000EF90DF90CF900C9445196C297D298E29ED
:1026B0009F2928960FB6F894DEBF0FBECDBFDF91DD
:1026C000CF911F910F91FF90EF90DF90CF900C94DE
:1026D0005F190E944519C701B60128960FB6F894F4
:1026E000DEBF0FBECDBFDF91CF911F910F91FF9045
:1026F000EF90DF90CF900C942B19FF2019F0842FCE
:10270000817001C08695882309F456C1262F229531
:1027100026952770220F220F862F8F70C82ED12C5E
:10272000E12CF12C022E04C0CC0CDD1CEE1CFF1C95
:102730000A94D2F764FF10C06FE070E080E090E090
:1027400004C0660F771F881F991F2A95D2F76095DE
:1027500070958095909503C060E070E0CB01242FC8
:10276000269526952370422F50E042305105D1F036
:102770004330510559F16C297D298E299F2941301B
:10278000510541F128960FB6F894DEBF0FBECDBFBC
:10279000DF91CF911F910F91FF90EF90DF90CF903D
:1027A0000C94F4196C297D298E299F2928960FB63F
:1027B000F894DEBF0FBECDBFDF91CF911F910F9177
:1027C000FF90EF90DF90CF900C94061A0E94F419BE
:1027D000C701B60128960FB6F894DEBF0FBECDBF75
:1027E000DF91CF911F910F91FF90EF90DF90CF90ED
:1027F0000C94E219603F49F118F4603E48F48CC033
:10280000623F09F451C0E0F1633F09F461C084C044
:10281000162F1F70842F8F71FF2021F00E948D19B9
:10282000812F7ECE0E94A819812F28960FB6F8948A
:10283000DEBF0FBECDBFDF91CF911F910F91FF90F3
:10284000EF90DF90CF900C94D711FF20A9F02530A6
:1028500008F0B2C0842F8F7128960FB6F894DEBFAF
:102860000FBECDBFDF91CF911F910F91FF90EF90E1
:10287000DF90CF900C94C719263008F09DC0EACFA6
:10288000FF20A1F0842F8F7128960FB6F894DEBF39
:102890000FBECDBFDF91CF911F910F91FF90EF90B1
:1028A000DF90CF900C948D19FF2061F3842F8F71EE
:1028B00028960FB6F894DEBF0FBECDBFDF91CF9143
:1028C0001F910F91FF90EF90DF90CF900C94A8197B
:1028D000FF2091F0842F8F7128960FB6F894DEBFF9
:1028E0000FBECDBFDF91CF911F910F91FF90EF9061
:1028F000DF90CF900C947E1928960FB6F894DEBF27
:102900000FBECDBFDF91CF911F910F91FF90EF9040
:10291000DF90CF900C947919FF20A1F0222309F4C5
:10292000B1CF862F28960FB6F894DEBF0FBECDBF6D
:10293000DF91CF911F910F91FF90EF90DF90CF909B
:102940000C94AE10222309F4B1CF862F28960FB62F
:10295000F894DEBF0FBECDBFDF91CF911F910F91D5
:10296000FF90EF90DF90CF900C9481114F70C801D1
:102970000E94721D28960FB6F894DEBF0FBECDBF21
:10298000DF91CF911F910F91FF90EF90DF90CF904B
:102990000C9476184F70C80128960FB6F894DEBFD5
:1029A0000FBECDBFDF91CF911F910F91FF90EF90A0
:1029B000DF90CF900C94751D28960FB6F894DEBF6B
:1029C0000FBECDBFDF91CF911F910F91FF90EF9080
:1029D000DF90CF9008950E94C01A0E948F1A0E9423
:1029E000DC1A0E94E9210E94BB2080E090E00E9456
:1029F000780F80E090E00C948E0F0E94B01A0C9437
:102A0000EB140E94191A292F22952F7030E02C30D8
:102A100031054CF42A3031056CF422503109223052
:102A2000310590F407C02C30310551F02F303105BD
:102A300039F00AC0803E10F0803F31F481E0089503
:102A400093FB882780F9089580E00895CF93DF9362
:102A500000D000D01F92CDB7DEB70F900F900F902F
:102A60000F900F90DF91CF910895CF93DF9300D017
:102A700000D000D0CDB7DEB726960FB6F894DEBFF3
:102A80000FBECDBFDF91CF9108951F93CF93DF93FA
:102A9000C091540116E080915501C81799F0D0E01B
:102AA0001C9FF0011D9FF00D1124EA5AFE4F40813A
:102AB000518162817381848195810E9435152196AF
:102AC000C770E9CFDF91CF911F91089540918601A2
:102AD00050918701609188017091890180918A01EC
:102AE00090918B010C943515CF9380918B01829539
:102AF0008F7009F05FC080918801882309F45AC063
:102B000020915401A0915501609186017091870137
:102B10008091890190918A0131E06F3F09F030E0A6
:102B2000B32FC6E02A1709F445C0009721F07F3F74
:102B300021F44B2F03C041E001C040E030E040FDF4
:102B400035C0C29FF001C39FF00D1124EA5AFE4F19
:102B5000418174132BC04081641328C0428141110C
:102B600025C0438154814817590710F44150510939
:102B7000481B590B483C5105C8F480918B018F705C
:102B8000806180938B0186E0829FF001839FF00D2E
:102B90001124E55AFE4F80818F708061808386E822
:102BA00091E00E94DE11CF910C9445152F5F3F4FAD
:102BB0002770B8CFCF910895CF92DF92EF92FF9216
:102BC0000F931F93CF93DF93CDB7DEB762970FB606
:102BD000F894DEBF0FBECDBF8C0185E0F801DE01A9
:102BE0001D9601900D928A95E1F7D8014C911196AE
:102BF0005C91119712966C9112971396ED90FC9040
:102C0000149770918601E09187012091890130919C
:102C10008A012115310531F0EF3F31F481E07F3F2A
:102C200019F403C081E001C080E0B82FB170CB2E51
:102C300080FD6CC1D0908801DD2009F4F5C0F091D1
:102C40008B01E216F30638F0C701821B930B883C18
:102C5000910548F09BC0209530952E0D3F1D283CD6
:102C6000310508F093C08F2F807F09F052C0E51323
:102C700014C0741312C0D62E61110FC0FF70F06122
:102C8000F0938B010E94661586E891E00E94DE11A8
:102C900080918B01F80185836CC1EF2831F05F3F93
:102CA00031F481E04F3F19F403C081E001C080E0BE
:102CB00080FD03C081E0862701C080E0F82FF1701D
:102CC000FF2E80FF1CC0809154012091550136E0F9
:102CD000821709F428C190E0389FF001399FF00D68
:102CE0001124EA5AFE4F7181571306C070814713B1
:102CF00003C07281671303C001968770E9CFD62E97
:102D0000662309F436C180918B01816080938B0129
:102D100053C0E51308C0741306C0611104C0D80184
:102D20001596FC93AEC04D875E878D859E856A8B18
:102D30000E9401156A89882329F1D62E662311F194
:102D400020918B01822F82958F7090E002970CF476
:102D500060C0809186019091870198878F83198642
:102D6000FB86EA862C87CE01079651C0E51731F124
:102D70004D875E878D859E856A8B0E9401156A89C5
:102D800081112EC0C8010E94DE11A4C08F2F807F48
:102D900069F77E2DF98AE88A89890E94261586E8D6
:102DA00091E00E94DE11E6E8F1E086E0DF011D928D
:102DB0008A95E9F70E946615D12CDBC07413D8CF31
:102DC0006111D6CFD8011596FC93C8010E94DE117F
:102DD000E6E8F1E086E0DF011D928A95E9F7C9C0D7
:102DE000D62E662379F220918B01822F82958F70E7
:102DF00090E0029774F080918601909187019A8308
:102E000089831B82FD82EC822E83CE0101960E9473
:102E1000DE1186E0F801A6E8B1E001900D928A95F6
:102E2000E1F70E9474156FC0E216F30628F0C7019F
:102E3000821B930B9C0104C0209530952E0D3F1DE5
:102E4000283C310508F052C0D62E662309F49ACFEB
:102E5000E5132CC074132AC080918B0180FD1DC026
:102E6000982F92959F70C9F0D80115968C9315975D
:102E70009F3039F09F5F9295907F8F70892B1596C8
:102E80008C93C8010E94DE1186E0F801A6E8B1E04B
:102E900001900D928A95E1F736C086E0F801A6E828
:102EA000B1E001900D928A95E1F763C04D875E878E
:102EB0008D859E850E940115882379F086E0F801B2
:102EC000A6E8B1E001900D928A95E1F70E94741591
:102ED0000E946615DD24D3944CC080918B018160E3
:102EE00080938B01C8010E94DE1143C07E2DF98AB8
:102EF000E88A89890E942615E6E8F1E086E0DF018C
:102F00001D928A95E9F70E94661533C0662309F47D
:102F100039CF4D875E878D859E850E940115882358
:102F200009F430CFCBCF4D875E878D859E850E947B
:102F3000191A292F22952F7030E0223031052CF4F8
:102F40009F7041F0811106C00CC0243031052CF473
:102F50009F7049F4805E883020F0C8010E94DE1125
:102F6000CF2CDC2C06C0D80115969C91907F91F750
:102F7000F8CF8D2D62960FB6F894DEBF0FBECDBF91
:102F8000DF91CF911F910F91FF90EF90DF90CF9045
:102F900008951F93CF93DF93CDB7DEB72C970FB66D
:102FA000F894DEBF0FBECDBF4F83588769877A87FD
:102FB0008B879C87CE0107960E94DC158823C1F081
:102FC0002F8138858A859B85892B31F03F3F11F011
:102FD00080E003C02F3FE1F781E0811147C04F81BE
:102FE000588569857A858B859C850E9435153EC0FC
:102FF00086E0FE013796DE01119601900D928A95CA
:10300000E1F7FF81E8854A855B854115510531F07F
:10301000EF3F31F481E0FF3F19F403C081E001C0CC
:1030200080E080FD23C02091550130E0C901019668
:10303000877099276091540170E086179707F1F126
:10304000F983EA835D834C8396E0929FD001939F3E
:10305000B00D1124AA5ABE4FFE01319601900D9277
:103060009A95E1F7809355010E94451516E08091ED
:10307000540190915501891779F1189FC0011124CD
:103080008A5A9E4F0E94DC15882331F1E091540149
:103090001E9FF0011124EA5AFE4F40815181628146
:1030A0007381848195810E9435158091540190E04F
:1030B00001968770992780935401D9CF0E94FD14FF
:1030C0001092550110925401E6E8F1E086E0DF012C
:1030D0001D928A95E9F7CACF2C960FB6F894DEBFF9
:1030E0000FBECDBFDF91CF911F910895DF92EF9278
:1030F000FF920F931F93CF93DF93FC01009709F486
:103100008AC0E12CF12CDD24D394EF012196849127
:10311000853709F461C058F4843708F04EC0843014
:1031200008F06AC08130D1F0823071F174C0883704
:1031300009F45DC050F4863709F455C0873709F0AB
:103140006AC08E2D0E94AD1A54C09CE7980F90372C
:1031500008F061C08F770E94811150C08F010E5F0F
:103160001F4FFE01849190E2980F983050F48770C1
:10317000FD2D01C0FF0F8A95EAF78F2F0E94B31A29
:1031800015C00E94AE1014C08F010E5F1F4FFE01CC
:10319000849190E2980F983068F48770FD2D01C0FB
:1031A000FF0F8A95EAF78F2F0E94B91A0E94DC1A46
:1031B000E80124C00E948111FBCF9F012E5F3F4F89
:1031C000FE01C491CC2369F08FE99FE00197F1F7EC
:1031D00000C00000C150F6CF9F012E5F3F4FFE019F
:1031E000F490E9010BC00E949D1AE82E07C00E94CE
:1031F000B01A0E94DC1A02C00E94AE109F2D9923C3
:1032000041F0EFE9FFE03197F1F700C00000915085
:10321000F6CFFE017ACFDF91CF911F910F91FF90F2
:10322000EF90DF90089560938C0170938D018093EF
:103230008E0190938F01862F0E94331B0C94EB1408
:1032400008956093900170939101809392019093FF
:1032500093010C94EB140F931F9300919001109124
:1032600091012091920130919301062B172B282B6D
:10327000392B009390011093910120939201309388
:1032800093011F910F910C94EB140F931F930091D6
:1032900090011091910120919201309193010623A8
:1032A0001723282339230093900110939101209331
:1032B0009201309393011F910F910C94EB140F9393
:1032C0001F930091900110919101209192013091F2
:1032D0009301062717272827392700939001109379
:1032E000910120939201309393011F910F910C94BF
:1032F000EB1460E070E0CB010C94131941E050E056
:1033000060E070E004C0440F551F661F771F8A9568
:10331000D2F7CB01BA010C94131941E050E060E000
:1033200070E004C0440F551F661F771F8A95D2F7BF
:1033300080918C0190918D01A0918E01B0918F01AF
:10334000482B592B6A2B7B2BCB01BA010C941319F8
:1033500041E050E060E070E004C0440F551F661F7C
:10336000771F8A95D2F7409550956095709580911A
:103370008C0190918D01A0918E01B0918F01482315
:1033800059236A237B23CB01BA010C94131941E022
:1033900050E060E070E004C0440F551F661F771FC7
:1033A0008A95D2F780918C0190918D01A0918E0128
:1033B000B0918F01482759276A277B27CB01BA0193
:1033C0000C9413190F931F9300918C0110918D0190
:1033D00020918E0130918F01602B712B822B932BCA
:1033E0001F910F910C9413190F931F9300918C014F
:1033F00010918D0120918E0130918F0160237123F6
:10340000822393231F910F910C9413190F931F93F1
:1034100000918C0110918D0120918E0130918F01CE
:1034200060277127822793271F910F910C941319FE
:103430000895CF92DF92EF92FF920F931F93CF9355
:10344000DF93EC01C0909001D0909101E090920147
:10345000F090930180918C0190918D01A0918E014B
:10346000B0918F01C82AD92AEA2AFB2A0FE110E07D
:10347000B701A601002E04C076956795579547952C
:103480000A94D2F740FF07C0BE01802F0E94FF1CA4
:103490008130910539F40150110950F7BE0180E0E7
:1034A0000E94FF1CDF91CF911F910F91FF90EF9031
:1034B000DF90CF90089540910C0150910D0120E0D4
:1034C00030E09FEFFA01E20FF31F6281681799F075
:1034D0009F3F19F4611101C0922F2F5F3F4F26309B
:1034E000310581F79F3F39F0FA01E90FF11D97FD92
:1034F000FA9582830895089540910C0150910D0131
:1035000020E030E0FA01E20FF31F9281981301C02E
:1035100012822F5F3F4F26303105A1F7089581E0D9
:1035200090E0E0910C01F0910D01E80FF91F10827D
:10353000019688309105A9F7089580919E0108951C
:1035400090919E01982B90939E0108958095909163
:103550009E01982390939E01089580939E01089563
:1035600010929E01089590919D01982B90939D013A
:103570000895809590919D01982390939D010895C1
:1035800010929D01089580939401089510929401E2
:10359000089540910C0150910D0120E030E080E051
:1035A000FA01E20FF31F918191118F5F2F5F3F4F5F
:1035B00027303105A9F70895E0910C01F0910D0134
:1035C00080919E018083E0910C01F0910D0180813A
:1035D00090919D01892B808390919401992361F0B2
:1035E000E0910C01F0910D018081892B80830E9474
:1035F000C91A81111092940180910C0190910D01D2
:103600000C94280F90933301809332010895829592
:10361000982F9C7C96959695837344E0849F9001A7
:103620001124922B892F8A7A86959575990F892B6B
:1036300008951F93CF93DF931F92CDB7DEB7998381
:103640000E94071B182F9981892F0E94071B212F89
:1036500030E0322F2227A901482BCA010F90DF91B9
:10366000CF911F91089508950895CF93DF9300D0CF
:1036700000D01F92CDB7DEB70F900F900F900F9034
:103680000F90DF91CF9108950C946A100895809166
:10369000B401843009F11092A00120E488E190E0A7
:1036A0000FB6F894A895809360000FBE2093600039
:1036B00083B7817F846083BF83B7816083BF789441
:1036C000889583B78E7F83BF88E10FB6F894809387
:1036D0006000109260000FBE089508950895CF9382
:1036E0000E946D1B0E9490060E946E1BC0E08C2FF2
:1036F0000E943E07811105C0CF5FC430C1F780E052
:1037000001C081E0CF9108950C94FD141F920F9297
:103710000FB60F9211248F939F93AF93BF93809115
:10372000A001811113C08091A1019091A201A091EB
:10373000A301B091A4014196A11DB11D8093A101E7
:103740009093A201A093A301B093A401BF91AF9164
:103750009F918F910F900FBE0F901F90189582E050
:1037600084BD93E095BD9AEF97BD80936E00089558
:103770002FB7F8948091A1019091A201A091A3018B
:10378000B091A4012FBF08952FB7F8946091A101C3
:103790007091A2018091A3019091A4012FBF08957F
:1037A000CF92DF92EF92FF920F931F932FB7F8946F
:1037B0004091A1015091A2016091A3017091A401D7
:1037C0002FBF6A017B01EE24FF248C0120E030E052
:1037D000C016D106E206F30610F441505109481B09
:1037E000590BCA011F910F91FF90EF90DF90CF907E
:1037F00008951F920F920FB60F9211248F939F93EB
:10380000AF93BF938091A1019091A201A091A301D8
:10381000B091A4010196A11DB11D8093A1019093C7
:10382000A201A093A301B093A401BF91AF919F9176
:103830008F910F900FBE0F901F9018950E94350C1E
:10384000F8942FEF87EA91E6215080409040E1F70D
:1038500000C0000087E090EBDC018093BE019093F4
:10386000BF01A093C001B093C1012CE088E190E0BA
:103870000FB6F894A895809360000FBE2093600067
:10388000FFCF8D3B60F4883A80F5853A28F5843087
:1038900008F5813009F06BC081E090E00895883E22
:1038A00098F4803EB8F48F3B09F061C00E94FD148B
:1038B0002FEF80E792E0215080409040E1F700C078
:1038C00000000E941E1C53C0803F08F450C090E0CE
:1038D0009065089590E00895853A09F44BC0863AC2
:1038E00009F04BC082E890E40895883A09F448C092
:1038F000893A09F448C08A3A09F448C08B3A09F475
:1039000048C08C3A09F448C08D3A09F448C08E3A50
:1039100009F448C08F3A09F448C0813B09F448C013
:10392000803B09F448C0823B09F448C0833B09F45A
:1039300048C0843B09F448C0853B09F448C0863B35
:1039400009F448C0873B09F448C0883B09F448C0E3
:10395000893B09F448C08A3B09F448C08B3B09F411
:1039600048C08C3B09F048C08AE296E4089580E0A4
:1039700090E0089581E890E4089583E890E4089544
:1039800082EE94E4089589EE94E408958AEE94E436
:10399000089585EB94E4089586EB94E4089583EB11
:1039A00094E4089584EB94E4089587EB94E40895F7
:1039B0008CEC94E408958DEC94E4089583E895E408
:1039C00008958AE895E4089582E995E4089584E9E4
:1039D00095E4089581E296E4089583E296E40895DB
:1039E00084E296E4089585E296E4089586E296E4FA
:1039F000089587E296E4089580E094E408950E9493
:103A00003806803EA8F4803C00F5813309F45CC0A0
:103A100038F4893209F452C08A3209F45BC05FC0BD
:103A20008933B1F08238A1F0853309F441C057C021
:103A3000833E41F128F4803E99F0823EB9F04FC0B8
:103A4000863E31F1873E71F14AC00E9447060895D3
:103A50009091BD0190FD02C091FF41C080EE3FC03A
:103A60008091BD0180FFFACF89E339C08091BD010B
:103A700082FF0CC08091BD0184FF02C080E02FC096
:103A800083EE2DC08091BD0182FFF4CF82EE27C06E
:103A90008091BD0183FF0AC08091BD0184FDEECFFE
:103AA00087EE1DC08091BD0183FFF6CF86EE17C063
:103AB0008091BD0185FF06C089E211C08091BD01E2
:103AC00085FFFACF85E30BC08091BD0186FF06C05C
:103AD0008AE205C08091BD0186FFFACF81E30E9492
:103AE000411C089580E090E008950895DF92EF92E0
:103AF000FF920F931F93CF93DF938C01D12C8D2DC9
:103B00000E943E07C0E0D0E0E82EF12C97010C2E79
:103B100002C0359527950A94E2F720FF16C06C2F56
:103B20007D2D80E00E94FF1C9C018017910759F0B9
:103B3000832F807E932F907C11F0803A31F430E017
:103B40002017310711F481E009C02196C730D10553
:103B5000E9F6D39484E0D812D2CF80E0DF91CF9100
:103B60001F910F91FF90EF90DF900895CF93DF9317
:103B7000EC018CE290E00E94761D882329F0CE01B2
:103B8000DF91CF910C94761D80E0DF91CF91089565
:103B9000CF930E94271F811102C00E940D1F84E154
:103BA00093E00E949605C5E6C15049F00E94900638
:103BB0008FE39CE90197F1F700C00000F5CF8DE09D
:103BC00093E00E94960589E290E00E94B61D811163
:103BD00022C18AE290E00E94B61D81110E940D1F51
:103BE00085E090E00E94B61D81110E941E1C0E947B
:103BF000461B0E94321F80939F0187E090E00E9445
:103C0000B61D8823B1F18BE190E00E94B61D882398
:103C100051F090919F0191FB882780F921E0822744
:103C200080FB91F924C08EE090E00E94B61D8823AD
:103C300051F090919F0192FB882780F921E0822723
:103C400080FB92F914C080E190E00E94B61D909133
:103C50009F01882341F093FB882780F921E0822788
:103C600080FB93F904C0892F809580FB90F9909395
:103C70009F0180919F010E94361F0E94441F8093E4
:103C8000BD0180EE90E00E94B61D882341F0809136
:103C9000BD01982F909590FB80F98093BD0189E339
:103CA00090E00E94B61D882359F09091BD0191FBD0
:103CB000882780F921E0822780FB91F99093BD014C
:103CC00082EE90E00E94B61D882359F09091BD01CC
:103CD00092FB882780F921E0822780FB92F990935C
:103CE000BD0186EE90E00E94B61D882359F09091A8
:103CF000BD0193FB882780F921E0822780FB93F99F
:103D00009093BD0183EE90E00E94B61D882359F088
:103D10009091BD0194FB882780F921E0822780FBE8
:103D200094F99093BD0185E390E00E94B61D88232D
:103D300059F09091BD0195FB882780F921E08227F9
:103D400080FB95F99093BD0181E390E00E94B61D40
:103D5000882359F09091BD0196FB882780F921E0D6
:103D6000822780FB96F99093BD0181E190E00E944B
:103D7000B61D882359F09091BD0197FB882780F9E3
:103D800021E0822780FB97F99093BD018091BD01CE
:103D90000E94481F87E290E00E94B61DC82F8EE166
:103DA00090E00E94B61D8111C2608FE190E00E94F8
:103DB000B61D8111C46080E290E00E94B61D8111A1
:103DC000C86081E290E00E94B61D8111C06182E26C
:103DD00090E00E94B61D8111C06283E290E00E94D3
:103DE000B61D8111C06484E290E00E94B61D882354
:103DF00011F0C06802C0CC2329F08C2F0E943F1F15
:103E00006C2F03C00E943B1F682F70E080E090E0A1
:103E1000CF910C942119CF9108956DEE7EEF80E043
:103E200090E00E94682860E082E090E00E945A28BA
:103E300060E083E090E00E945A2860E084E090E037
:103E40000E945A2860E085E090E00C945A2880E0B7
:103E500090E00E94542821E08D3E9E4F09F020E022
:103E6000822F089582E090E00C944C28682F82E025
:103E700090E00C945A2883E090E00C944C28682F32
:103E800083E090E00C945A2884E090E00C944C2855
:103E9000682F84E090E00C945A288091A70180FF5D
:103EA0000BC06091110185E0689FB00111247595E8
:103EB0006795759567952AC081FF09C060911101CA
:103EC00085E0689FB0011124759567951FC082FF3A
:103ED00007C06091110185E0689FB001112416C0F0
:103EE0004091A8014423C9F060911001461788F75A
:103EF0002091110185E0289F90011124429FC0016B
:103F0000439F900D112470E00E941E2860387105B7
:103F100040F46115710539F002C065E070E0862F4C
:103F200008958FE7089581E008958091A70180FFAB
:103F300008C060910F0170E075956795759567955C
:103F400021C081FF06C060910F0170E075956795F3
:103F500019C082FF04C060910F0170E010C0809111
:103F6000A8018823C1F060910E018617A0F79091F7
:103F70000F01989FC001112470E00E941E28603834
:103F8000710528F46115710521F0862F08958FE7DA
:103F9000089581E0089561E070E0F4CF803F21F45E
:103FA0000E944D1F819504C0813F29F40E944D1F3E
:103FB0008093AB010895823F21F40E944D1F8195AB
:103FC00004C0833F29F40E944D1F8093AA010895E5
:103FD000893F19F40E94951F05C08A3F31F40E9461
:103FE000951F81958093AC0108958B3F21F40E9429
:103FF000951F819504C08C3F29F40E94951F8093E2
:10400000AD010895843F21F48091A901816017C01A
:10401000853F21F48091A901826011C0863F21F47F
:104020008091A90184600BC0873F21F48091A90190
:10403000886005C0883F31F48091A9018061809338
:10404000A90108958D3F21F48091A70181600BC0E3
:104050008E3F21F48091A701826005C08F3F29F433
:104060008091A70184608093A7010895803F39F46F
:104070008091AB0187FF6CC01092AB0169C0813F9A
:1040800029F48091AB011816BCF362C09091AA018B
:10409000823F29F497FF5CC01092AA0159C0833F68
:1040A00019F41916CCF354C0893F41F48091AC0146
:1040B00018160CF04DC01092AC014AC08A3F29F48A
:1040C0008091AC0187FF44C0F6CF8B3F39F48091DB
:1040D000AD0187FF3DC01092AD013AC08C3F29F47D
:1040E0008091AD011816BCF333C0843F21F4809158
:1040F000A9018E7F17C0853F21F48091A9018D7F92
:1041000011C0863F21F48091A9018B7F0BC0873FAE
:1041100021F48091A901877F05C0883F31F4809107
:10412000A9018F7E8093A90113C08D3F21F4809156
:10413000A7018E7F0BC08E3F21F48091A7018D7F58
:1041400005C08F3F29F48091A7018B7F8093A70141
:104150008091AA0181110EC08091AB0181110AC02A
:104160008091AC01811106C08091AD01811102C026
:104170001092A801089580919F0183FF7EC080E581
:1041800093E00E9496058091A9011F928F938BE482
:1041900093E09F938F930E942F0689E493E00E94FF
:1041A00096052091AA01822F992787FD90959F93CC
:1041B0002F9386E493E09F938F930E942F0684E4CD
:1041C00093E00E9496052091AB01822F992787FDED
:1041D00090959F932F9381E493E09F938F930E94F8
:1041E0002F068FE393E00E9496052091AC01822F69
:1041F000992787FD90959F932F938CE393E09F934E
:104200008F930E942F068AE393E00E9496052091E7
:10421000AD01822F992787FD90959F932F9387E378
:1042200093E09F938F930E942F0684E393E00E9474
:1042300096058091A8011F928F9381E393E09F934D
:104240008F930E942F068FE293E00E949605809143
:10425000A7011F928F938CE293E09F938F930E940C
:104260002F0689E293E00E9496058DB79EB74C9683
:104270000FB6F8949EBF0FBE8DBF89EA91E00E94F1
:104280006D0F0E94B81B9093A6018093A50108951D
:104290001F93CF93DF938091A5019091A6010E9477
:1042A000D01B4091A801442321F02091120130E05D
:1042B00006C0209113015AE0259F90011124821716
:1042C000930708F482C08091AA011091AB01D091AC
:1042D000AC01C091AD01811107C0111105C0D11110
:1042E00003C0CC2309F471C04F3F19F04F5F4093D6
:1042F000A801181624F40E944D1F8093AA018091F2
:10430000AA0187FF05C00E944D1F81958093AA01D5
:10431000111624F40E944D1F8093AB018091AB01D4
:1043200087FF05C00E944D1F81958093AB0160916E
:10433000AA01662339F11091AB01112319F17727F6
:1043400067FD7095872F972F0E94232723E333E380
:1043500043E35FE30E9487270E94F0266093AA014F
:10436000612F772767FD7095872F972F0E9423274E
:1043700023E333E343E35FE30E9487270E94F026B1
:104380006093AB011D1624F40E94951F8093AC012D
:104390008091AC0187FF05C00E94951F8195809395
:1043A000AC011C1624F40E94951F8093AD018091EE
:1043B000AD0187FF05C00E94951F81958093AD01D7
:1043C000DF91CF911F910C94BB20DF91CF911F9172
:1043D0000895E9EAF1E085E0DF011D928A95E9F7A9
:1043E0001092A8011092A701089583E795E00E941A
:1043F00096051F9281E08F931F9285E08F9385E24F
:1044000095E09F938F930E942F060F900F900F902F
:104410000F900F900F9008958330E9F128F48130C8
:1044200061F0823009F10895853009F462C008F422
:1044300049C0863009F474C0089520911301862F75
:1044400090E0820F911D8F3F910520F4620F6093E1
:10445000130103C08FEF80931301809113011F920A
:104460008F938EE594E072C020911201862F90E028
:10447000820F911D8F3F910520F4620F609312010E
:1044800003C08FEF80931201809112011F928F93CE
:104490008CE494E05BC020911101862F90E0820FA4
:1044A000911D8F3F910520F4620F6093110103C0AD
:1044B0008FEF80931101809111011F928F9389E3F7
:1044C00094E044C020911001862F90E0820F911D4E
:1044D0008F3F910520F4620F6093100103C08FEFAE
:1044E00080931001809110011F928F9384E294E0D9
:1044F0002DC020910F01862F90E0820F911D8F3FDC
:10450000910520F4620F60930F0103C08FEF809339
:104510000F0180910F011F928F938BE094E016C0E2
:1045200020910E01862F90E0820F911D8F3F910503
:1045300020F4620F60930E0103C08FEF80930E0191
:1045400080910E011F928F9380EF93E09F938F9342
:104550000E942F060F900F900F900F9008958330B8
:1045600081F128F4813059F08230D1F008958530FE
:1045700009F449C0B8F1863009F456C00895809115
:104580001301681720F4861B8093130102C0109258
:104590001301809113011F928F9381EE93E054C019
:1045A00080911201681720F4861B8093120102C0CB
:1045B00010921201809112011F928F938FEC93E061
:1045C00043C080911101681720F4861B809311016C
:1045D00002C010921101809111011F928F938CEBF8
:1045E00093E032C080911001681720F4861B8093FD
:1045F000100102C010921001809110011F928F9340
:1046000087EA93E021C080910F01681720F4861B90
:1046100080930F0102C010920F0180910F011F9231
:104620008F938EE893E010C080910E01681720F4FC
:10463000861B80930E0102C010920E0180910E0124
:104640001F928F9383E793E09F938F930E942F068F
:104650000F900F900F900F900895CF93C82F1F9237
:104660008F9328E736E03F932F930E942F0661E057
:1046700070E080E090E004C0660F771F881F991FEC
:10468000CA95D2F70E9421190F900F900F900F90AA
:10469000CF910C94FD14CF938732B0F58E3108F092
:1046A0003DC28E3009F4BDC100F5873009F48DC1DB
:1046B000A8F4863009F036C280919F01817F8E7FF9
:1046C00080939F018DE796E00E94960585E79AE02A
:1046D0000E94960581E08093AF0175C1883009F48E
:1046E0003FC08B3009F46BC11DC2863109F4DDC1B6
:1046F00020F4803109F4A8C115C2893109F4BEC182
:104700008B3109F47BC10EC2883309F458C150F4CF
:10471000893209F401C2853309F4FEC1873209F0F8
:1047200001C2FAC1833409F4F7C128F48A3308F4CA
:10473000F9C18953F4C1883409F0F4C10E94FD1411
:1047400084E69AE00E9496059FEF23ED80E3915066
:1047500020408040E1F700C000000E941E1C33C1D1
:1047600089E79AE00E94960584E798E00E94960502
:104770000E943B1F1F928F9381E798E09F938F9336
:104780000E942F068FE698E00E9496050E94321F35
:10479000C82F8CE598E00E9496051F92CF9327E5DD
:1047A00038E03F932F930E942F0685E598E00E9402
:1047B00096058BE498E00E9496058C2F81701F92DD
:1047C0008F9328E438E03F932F930E942F0686E4CE
:1047D00098E00E9496058CE398E00E949605C1FB44
:1047E000882780F91F928F9329E338E03F932F9316
:1047F0000E942F0687E398E00E9496058BE298E0DE
:104800000E949605C2FB882780F91F928F9328E2A9
:1048100038E03F932F930E942F0686E298E00E9493
:1048200096058DE198E00E949605C3FBCC27C0F960
:104830001F92CF938AE198E09F938F930E942F0657
:1048400088E198E00E9496050E94441FC82F84E0EA
:1048500098E00E9496051F92CF932FEF37E03F9389
:104860002F930E942F068DEF97E00E94960584EE0D
:1048700097E00E9496058C2F81701F928F9321EEF6
:1048800037E03F932F930E942F068DB79EB78096F7
:104890000FB6F8949EBF0FBE8DBF8FED97E00E94BC
:1048A000960588EC97E00E949605C1FB882780F961
:1048B0001F928F9325EC37E03F932F930E942F0692
:1048C00083EC97E00E94960581EB97E00E949605A5
:1048D000C2FB882780F91F928F932EEA37E03F931F
:1048E0002F930E942F068CEA97E00E9496058AE992
:1048F00097E00E949605C3FB882780F91F928F934B
:1049000027E937E03F932F930E942F0685E997E030
:104910000E9496058BE897E00E949605C4FB8827C5
:1049200080F91F928F9328E837E03F932F930E94DE
:104930002F0686E897E00E94960584E797E00E949C
:104940009605C5FB882780F91F928F9321E737E0F2
:104950003F932F930E942F068FE697E00E949605C3
:1049600083E597E00E949605C6FB882780F91F9291
:104970008F9320E537E03F932F930E942F068EE41C
:1049800097E00E94960586E497E00E949605C7FB93
:10499000CC27C0F91F92CF9383E497E09F938F9326
:1049A0000E942F0681E497E00E9496058DB79EB77E
:1049B0004C960FB6F8949EBF0FBE8DBF04C084EA1C
:1049C00096E00E949605C1E0B2C080919F01C82F79
:1049D000C17080FF09C087E59AE00E94960580912A
:1049E0009F01817F8E7F44C08BE49AE00E949605F0
:1049F00080919F01816080939F01E5CF80919F010D
:104A000081FBCC27C0F991E0C927C0FB81F98093D5
:104A10009F01CC2319F08EE39AE025C080E39AE051
:104A2000D0CF80919F0182FBCC27C0F991E0C927AC
:104A3000C0FB82F980939F01CC2319F081E29AE0B8
:104A400012C081E19AE0BDCF80919F0183FBCC270A
:104A5000C0F991E0C927C0FB83F980939F01CC2363
:104A600051F085E09AE00E94960580919F01816057
:104A700080939F015CC088EF99E0A3CF89EE99E015
:104A80000E94960580EC99E00E9496058BE899E0DB
:104A90000E9496058EE599E00E9496058EE199E0C8
:104AA0000E9496058FEE98E08CCF81EE98E00E94F0
:104AB00096050E941C0F1F928F9387EC98E09F939E
:104AC0008F930E942F0680910B011F928F9380EB92
:104AD00098E09F938F930E942F06809148011F9228
:104AE0008F938DE998E09F938F930E942F060E94E9
:104AF000C41B9F938F937F936F9386E898E09F9357
:104B00008F930E942F068DB79EB742960FB6F894EA
:104B10009EBF0FBE8DBF57CF80E001C08D510E9458
:104B20002D2351CF84E898E00E949605C0E08C2F99
:104B3000CF91089580E0089580E00895CF93C82F25
:104B40008091AF01813071F020F0823009F448C0CB
:104B50003FC1A0910C01B0910D018C91823209F0FE
:104B600039C107C0A0910C01B0910D018C91823226
:104B700049F48C2F0E949A2581112FC08C2F0E94FE
:104B80004B232CC08C2F0E949C25811126C0C43140
:104B9000E1F070F4CB3081F0C031D1F40E94F52106
:104BA00080E796E00E94960582E08093AF0115C0F1
:104BB000C93259F0C83361F48DE796E00E9496053A
:104BC00084E796E00E94960508C01092AF0104C1E8
:104BD0008EE696E00E949605FFC081E08170FEC0DF
:104BE000C43228F5CE3108F0C1C0CB30A1F1D0F4E9
:104BF000C73009F0D3C08EE18093130182E3809324
:104C000012018AE08093110184E18093100188E011
:104C100080930F0188E280930E0184E195E00E9469
:104C20009605BFC0C33149F1C431C1F0B7C0CB3420
:104C300009F4A9C028F4C93289F0C83361F0AEC0C4
:104C4000C13509F49EC0C23509F499C0CE3409F0CB
:104C5000A5C06AE09EC00E94F521A3C08091AE016C
:104C6000882319F01092AE019CC081E295E00E9469
:104C7000960581E08093AF01B1C08BEF94E00E9474
:104C8000960589EE94E00E949605809113011F928B
:104C90008F9386EE94E09F938F930E942F0684EE6D
:104CA00094E00E94960582ED94E00E949605809122
:104CB00012011F928F938FEC94E09F938F930E9429
:104CC0002F068DEC94E00E9496058EEB94E00E94F6
:104CD0009605809111011F928F938BEB94E09F9327
:104CE0008F930E942F0689EB94E00E94960588EA34
:104CF00094E00E949605809110011F928F9385EA9F
:104D000094E09F938F930E942F0683EA94E00E9481
:104D100096058EE894E00E94960580910F011F92FF
:104D20008F938BE894E09F938F930E942F0689E8DE
:104D300094E00E94960582E794E00E949605809197
:104D40000E011F928F938FE694E09F938F930E94A2
:104D50002F068DE694E00E9496058DB79EB7489683
:104D60000FB6F8949EBF0FBE8DBF1BC0CE51EC2F67
:104D7000F0E0E85DFE4F80818093AE0112C061E0FB
:104D800003C061E006C06AE08091AE010E940C227F
:104D900008C08091AE010E94AF2203C082E195E07D
:104DA00013C08091AE01882369F01F928F938CE02D
:104DB00095E09F938F930E942F060F900F900F9076
:104DC0000F9004C089E095E00E94960581E006C03E
:104DD0001092AF0180E002C080E000CFCF91089533
:104DE00004D06894B1118DC0089570D088F09F5799
:104DF00090F0B92F9927B751A0F0D1F0660F771F27
:104E0000881F991F1AF0BA95C9F712C0B13081F006
:104E100077D0B1E0089574C0672F782F8827B85FE6
:104E200039F0B93FCCF3869577956795B395D9F767
:104E30003EF490958095709561957F4F8F4F9F4F71
:104E40000895E89409C097FB3EF49095809570957D
:104E500061957F4F8F4F9F4F9923A9F0F92F96E9C6
:104E6000BB279395F695879577956795B795F1113B
:104E7000F8CFFAF4BB0F11F460FF1BC06F5F7F4FD8
:104E80008F4F9F4F16C0882311F096E911C07723EA
:104E900021F09EE8872F762F05C0662371F096E8F3
:104EA000862F70E060E02AF09A95660F771F881FC2
:104EB000DAF7880F9695879597F9089557FD9058DA
:104EC000440F551F59F05F3F71F04795880F97FBCE
:104ED000991F61F09F3F79F0879508951216130688
:104EE0001406551FF2CF4695F1DF08C016161706B7
:104EF0001806991FF1CF86957105610508940895EC
:104F0000E894BB2766277727CB0197F908950BD044
:104F100078C069D028F06ED018F0952309F05AC0F7
:104F20005FC01124EECFCADFA0F3959FD1F3950F98
:104F300050E0551F629FF001729FBB27F00DB11D1D
:104F4000639FAA27F00DB11DAA1F649F6627B00DAD
:104F5000A11D661F829F2227B00DA11D621F739F96
:104F6000B00DA11D621F839FA00D611D221F749FA4
:104F70003327A00D611D231F849F600D211D822FEB
:104F8000762F6A2F11249F5750408AF0E1F0882332
:104F90004AF0EE0FFF1FBB1F661F771F881F91503F
:104FA0005040A9F79E3F510570F014C0AACF5F3F53
:104FB000ECF3983EDCF3869577956795B795F79572
:104FC000E7959F5FC1F7FE2B880F911D96958795FA
:104FD00097F9089597F99F6780E870E060E0089579
:104FE0009FEF80EC089500240A9416161706180601
:104FF0000906089500240A941216130614060506DD
:105000000895092E0394000C11F4882352F0BB0F6D
:1050100040F4BF2B11F460FF04C06F5F7F4F8F4FD0
:105020009F4F0895991B79E004C0991F961708F0C7
:10503000961B881F7A95C9F78095089597FB072ED0
:1050400016F4009407D077FD09D00E94382807FC99
:1050500005D03EF4909581959F4F08957095619588
:105060007F4F0895EE0FFF1F0590F491E02D0994F6
:10507000AA1BBB1B51E107C0AA1FBB1FA617B7077E
:1050800010F0A61BB70B881F991F5A95A9F780959A
:105090009095BC01CD010895F999FECF92BD81BDD7
:1050A000F89A992780B50895A8E1B0E042E050E071
:1050B0000C946F28262FF999FECF1FBA92BD81BD9F
:1050C00020BD0FB6F894FA9AF99A0FBE019608958A
:1050D0000E945A28272F0C945B28DC01CB01FC018D
:1050E000F999FECF06C0F2BDE1BDF89A319600B441
:0E50F0000D9241505040B8F70895F894FFCF4C
:1050FE00059207830860082C08F907019501280816
:10510E00140A321E3F4D3620A9025C022602060208
:10511E009201AB01C401DD0101020304050607087B
:02512E00090076
:00000001FF
