:100000000C9444050C948A050C948A050C948A057A
:100010000C948A050C948A050C948A050C948A0524
:100020000C948A050C948A050C94960C0C946C0D17
:100030000C94691B0C948A050C948A050C948A050F
:100040000C948A050C948A050C948A050C948A05F4
:100050000C948A050C94DC1B0C948A050C948A057C
:100060000C948A050C948A050C948A050C948A05D4
:100070000C948A050C948A050C948A050C948A05C4
:100080000C948A050C948A050C948A050C948A05B4
:100090000C948A050C948A05D50DF70DE20EF70D28
:1000A000E20E390E5C0EE20EB10EC40E08120812FA
:1000B000361236129212CE12BF14BF14E612BF14BB
:1000C000DD13DD139914BF14BF14AD14F1A6218AFA
:1000D000228A2913F1A7018C028C048C088C160D3E
:1000E0000F520504121051192C2BE0E2090A0025C9
:1000F00030313662003A200025303258000A722F23
:100100006320303132333435363738394142434455
:1001100045460A000A002530325800626F756E634A
:1001200065213A20005B735D004B6579626F6172F7
:10013000642073746172742E0A0055534220636FF9
:100140006E666967757265642E0A005B575D005BB9
:10015000535D005B525D005B445D005B435D000AE4
:1001600003470048003600300000001203670065B6
:100170000065006B006800610063006B0000000414
:1001800003090409027400040100A03209040000FC
:100190000103010100092111010001223F000705AF
:1001A000810308000A09040100010301020009217A
:1001B00011010001224D000705820308000A09040D
:1001C0000200010300000009211101000122360094
:1001D0000705830308000A09040300020300000066
:1001E00009211101000122200007058403200001DC
:1001F000070504032000011201100100000008EDB2
:10020000FE60600100010200010631FF0974A101D6
:100210000975150025FF95207508810209761500DE
:1002200025FF952075089102C005010980A101856F
:100230000216010026B7001A01002AB700751095B2
:10024000018100C0050C0901A101850316010026EA
:100250009C021A01002A9C02751095018100C005BC
:10026000010902A1010901A10005091901290515CA
:100270000025019505750181029501750381010530
:1002800001093009311581257F950275088106091C
:10029000381581257F950175088106050C0A3802FD
:1002A0001581257F950175088106C0C005010906E5
:1002B000A101050719E029E7150025019508750139
:1002C0008102950175088101050819012905950527
:1002D000750191029501750391010507190029FF28
:1002E000150025FF950675088100C00A00253032EB
:1002F0005820006B6579626F6172645F7265706F20
:1003000072743A20004C45443A20253032580A0095
:10031000646F6E652E0A00626F6F746D616769634A
:10032000207363616E3A202E2E2E2000290A0025AC
:1003300075002F002575005D28002564002000252C
:100340006400200025640020002564007C00253026
:100350003258006D6F7573656B6579205B62746EE2
:100360007C782079207620685D287265702F616323
:100370006C293A205B006D6B5F776865656C5F7414
:10038000696D655F746F5F6D6178203D2025640A3B
:10039000006D6B5F776865656C5F6D61785F73702A
:1003A000656564203D2025640A006D6B5F74696D8E
:1003B000655F746F5F6D6178203D2025640A006D74
:1003C0006B5F6D61785F7370656564203D202564A7
:1003D0000A006D6B5F696E74657276616C203D20FA
:1003E00025640A006D6B5F64656C6179203D202592
:1003F000640A006D6B5F776865656C5F74696D6535
:100400005F746F5F6D6178203D2025640A006D6B1D
:100410005F776865656C5F6D61785F737065656453
:10042000203D2025640A006D6B5F74696D655F7403
:100430006F5F6D6178203D2025640A006D6B5F6DF4
:1004400061785F7370656564203D2025640A006DE6
:100450006B5F696E74657276616C203D2025640A5D
:10046000006D6B5F64656C6179203D2025640A0036
:100470000A00257500363A20776865656C5F7469F7
:100480006D655F746F5F6D61783A20000A002575B5
:1004900000353A20776865656C5F6D61785F7370D1
:1004A0006565643A20000A00257500343A207469B5
:1004B0006D655F746F5F6D61783A20000A00257585
:1004C00000333A206D61785F73706565643A20008F
:1004D0000A00257500323A20696E74657276616C87
:1004E000286D73293A20000A00257500313A2064EE
:1004F000656C6179282A31306D73293A20000A0928
:100500002D2056616C756573202D0A004D3E004DFF
:1005100025643E20003F0073657420646566617544
:100520006C740A00433E200077686572652064653C
:100530006C74613A20637572736F723D25642C2070
:10054000776865656C3D25640A5365652068747439
:10055000703A2F2F656E2E77696B697065646961DB
:100560002E6F72672F77696B692F4D6F7573655F9B
:100570006B6579730A000A092D204D6F7573656BE1
:100580006579202D0A4553432F713A0971756974B5
:100590000A313A0964656C6179282A31306D732912
:1005A0000A323A09696E74657276616C286D732936
:1005B0000A333A096D61785F73706565640A343A8D
:1005C0000974696D655F746F5F6D61780A353A090A
:1005D000776865656C5F6D61785F73706565640AE7
:1005E000363A09776865656C5F74696D655F746F2D
:1005F0005F6D61780A0A703A097072696E742076CC
:10060000616C7565730A643A097365742064656684
:1006100061756C74730A75703A092B310A646F77CF
:100620006E3A092D310A706775703A092B31300A1C
:100630007067646F776E3A092D31300A0A737065FE
:100640006564203D2064656C7461202A206D6178AA
:100650005F7370656564202A202872657065617417
:10066000202F2074696D655F746F5F6D6178290A52
:10067000003F004D3E2000433E20004C25640A0010
:100680000A092D20436F6E736F6C65202D0A455348
:10069000432F713A09717569740A6D3A096D6F7566
:1006A00073656B65790A000A092D204D61676963DE
:1006B000202D0A643A0964656275670A783A09640C
:1006C00065627567206D61747269780A6B3A0964B6
:1006D00065627567206B6579626F6172640A6D3A55
:1006E000096465627567206D6F7573650A763A09EE
:1006F00076657273696F6E0A733A09737461747503
:10070000730A633A09636F6E736F6C65206D6F6473
:10071000650A302D343A096C61796572302D3428C0
:100720004631302D4634290A506175733A09626F9B
:100730006F746C6F616465720A653A096565707201
:100740006F6D0A000A002575002E6E6B726F3A20DD
:10075000000A002575002E737761705F6261636B1C
:10076000736C6173685F6261636B73706163653A38
:1007700020000A002575002E737761705F67726133
:1007800076655F6573633A20000A002575002E6E5A
:100790006F5F6775693A20000A002575002E737730
:1007A00061705F72616C745F726775693A20000AEC
:1007B000002575002E737761705F6C616C745F6CDF
:1007C0006775693A20000A002575002E6361707311
:1007D0006C6F636B5F746F5F636F6E74726F6C3A94
:1007E00020000A002575002E737761705F636F6EBD
:1007F00074726F6C5F636170736C6F636B3A20002F
:100800000A0025303258006B65796D61705F636F47
:100810006E6669672E7261773A20000A00257500BE
:100820002E6D6F7573653A20000A002575002E6BDA
:100830006579626F6172643A20000A002575002EA6
:100840006D61747269783A20000A002575002E6582
:100850006E61626C653A20000A00253032580064EF
:10086000656275675F636F6E6669672E7261773A5E
:1008700020000A0025750064656661756C745F6C04
:10088000617965723A20003F0074696D65725F722C
:10089000656164333228293A202530346C580A00C7
:1008A0006B6579626F6172645F69646C653A20257B
:1008B000580A006B6579626F6172645F70726F7461
:1008C0006F636F6C3A2025580A00686F73745F6B12
:1008D0006579626F6172645F6C65647328293A2080
:1008E00025580A000A092D20537461747573202D50
:1008F0000A004743433A20342E382E3220415652C4
:100900002D4C4942433A20312E382E3073766E20DA
:100910004156525F415243483A2061767235310A5E
:10092000004F5054494F4E533A204C5546412042B7
:100930004F4F544D41474943204D4F5553454B452B
:10094000592045585452414B455920434F4E534F1F
:100950004C4520434F4D4D414E4420343039360AEA
:10096000004255494C443A20373538353438372D14
:100970006469727479202831393A31373A35372031
:100980004A616E2032382032303137290A00564908
:10099000443A20307846454544286765656B686170
:1009A000636B29205049443A20307836303630285D
:1009B0004748363029205645523A2030783030307A
:1009C000310A00444553433A20742E6D2E6B2E207D
:1009D0006B6579626F617264206669726D776172AE
:1009E0006520666F7220474836300A000A092D20BC
:1009F00056657273696F6E202D0A000A6D6F7573EC
:100A0000653A206F66660A000A6D6F7573653A2055
:100A10006F6E0A000A6B6579626F6172643A206FCB
:100A200066660A000A6B6579626F6172643A206FCC
:100A30006E0A000A6D61747269783A206F66660A00
:100A4000000A6D61747269783A206F6E0A000A6458
:100A5000656275673A206F6E0A000A6465627567A1
:100A60003A206F66660A000A0A626F6F746C6F61E3
:100A70006465722E2E2E2000433E20006565636F54
:100A80006E6669673A0A000011241FBECFEFD0E2FC
:100A9000DEBFCDBF04B603FE24C08091BB019091A0
:100AA000BC01A091BD01B091BE018730904BA74021
:100AB000B04BB9F41092BB011092BC011092BD0171
:100AC0001092BE0114BE84B7877F84BF88E10FB641
:100AD000F89480936000109260000FBEE0E0F8EFA1
:100AE000099511E0A0E0B1E0E4ECF0E500E00BBF17
:100AF00002C007900D92A233B107D9F711E0A2E32B
:100B0000B1E001C01D92AB3BB107E1F70E94CD09F6
:100B10000C9460280C940000FF93EF93E091320155
:100B2000F0913301309709F00995EF91FF91089505
:100B3000FC018591803011F0EFDFFBCF0895FF2796
:100B4000E0E230E247FF0CC0419597FF09C0EDE2BB
:100B50006095709580959095611D711D811D911D09
:100B600027FF02C0219530E350E2AA27660F771FC6
:100B7000881F991FAA1FA41710F0A41B63955A95EC
:100B8000A9F7AA3008F0A95FA05DAF93F3956115AE
:100B900071058105910541F7ED3211F4EF93F3955D
:100BA000F21718F43F93F395FBCF8F91B5DFFA95C9
:100BB000E1F70895E991F9918591803021F085322E
:100BC00019F0AADFF9CF089520E0E8945591553245
:100BD000C1F3503311F4689455915A3348F450538B
:100BE00090F3220F022E220F220F200D250FF4CF9B
:100BF0000EF4219589919991533619F3533729F1C0
:100C0000533559F1BC0188279927E8945C3621F4C3
:100C10008991999168945591543639F446EF7EF054
:100C200077FF0DC08FEF9FEF0AC055374AE039F0CC
:100C3000583540E121F0523642E009F00895FF9323
:100C4000EF937DDFEF91FF91B7CFFF93EF93FC011F
:100C500081918030B9F360DFFBCFFF93EF9368DFC2
:100C6000F1CFDF93CF93CDB7DEB72596A3DFCF913A
:100C7000DF91089595E0799FF00111249FE0899F0D
:100C8000E00DF11D1124E60FF11DE252FF4F84919A
:100C90000895E82FF0E0EE0FFF1FE45BF040859130
:100CA000949108958AB1817F8AB98BB1817F8BB984
:100CB00008950E94520684B1817084B985B18E6F07
:100CC00085B984B1837084B985B18C6F85B984B1DD
:100CD000877084B985B1886F85B984B18F7084B904
:100CE00085B1806F85B984B18F7184B985B1806E0B
:100CF00085B984B18F7384B985B1806C85B9279823
:100D00002F9A1092370110923401109238011092EC
:100D1000350110923901109236010895DF92EF9259
:100D2000FF920F931F93CF93DF93C4E3D1E0F12C95
:100D3000EE24E39485E0D82E06E111E081E0F81678
:100D400031F092E0F91631F0519A599805C0529A53
:100D50005A9802C0539A5B9880EA8A95F1F783B15A
:100D6000869581708E251A9B02C020E001C022E08A
:100D7000822B1B9B02C020E001C024E0822B1C9B25
:100D800002C090E001C098E0892B1D9B02C090E05A
:100D900001C090E1892B9881981739F1888380915F
:100DA0000001882301F180919C0180FF04C08BE148
:100DB00091E00E94980580919C0180FF0CC0809179
:100DC00000011F928F931F930F930E9431060F9083
:100DD0000F900F900F9080919C0180FF04C084E1E0
:100DE00091E00E949805D09200010E945206F3946F
:100DF000219693E0F912A2CF809100018823C1F0DF
:100E000081508093000181110DC080913401809345
:100E100037018091350180933801809136018093AC
:100E2000390106C08FE99FE00197F1F700C000008B
:100E300081E0DF91CF911F910F91FF90EF90DF90B4
:100E40000895E82FF0E0E95CFE4F80810895CF928D
:100E5000DF92EF92FF920F931F93CF93DF938DEF6B
:100E600090E00E94980597E3E92E91E0F92EC0E00A
:100E7000D0E028EFC22E20E0D22E0FEE10E0DF935C
:100E8000CF93DF92CF920E94310685EF90E00E94CF
:100E90009805F70181917F0190E00E94FC1A9F93D1
:100EA0008F931F930F930E9431068DEE90E00E9466
:100EB000980521968DB79EB708960FB6F8949EBFF9
:100EC0000FBE8DBFC330D105D1F6DF91CF911F91F9
:100ED0000F91FF90EF90DF90CF90089581FF02C0B7
:100EE0003A9A01C03A984298089580914501089530
:100EF0009FB7F89410923C019FBF9091B10194303C
:100F000009F058C09091E9009F702091EC0020FFFB
:100F100002C020E801C020E0292B94E09093E90072
:100F20009091EB0090FF43C09091EE0097FF3FC07F
:100F300090913A01992321F09091E80095FF37C0F4
:100F400010923A0196E03091E80035FD15C03091DD
:100F5000B101343061F53091EB0035FD28C091507E
:100F600021F481E080933A0122C0EFE9FFE031975C
:100F7000F1F700C00000E7CF8093F1008091E80016
:100F800085FD0AC08091E80080FFFCCF8091E800D9
:100F90008E778093E80006C08FB7F89491E0909325
:100FA0003C018FBF2F702093E90080E008952F70DF
:100FB0002093E9008FEF0895CF93DF9300D01F9225
:100FC000CDB7DEB72091B101243019F523E0298394
:100FD0009B838A832093E9008FEF9091E8008150F2
:100FE00095FD06C095ED9A95F1F700008111F5CFBA
:100FF0008091E80085FF0DC040E050E063E070E0C4
:10100000CE0101960E948C0A8091E8008E77809331
:10101000E8000F900F900F90DF91CF910895CF933C
:10102000DF9300D01F92CDB7DEB72091B1012430FD
:1010300021F522E029839B838A8383E08093E90062
:101040008FEF9091E800815095FD06C095ED9A953F
:10105000F1F700008111F5CF8091E80085FF0DC008
:1010600040E050E063E070E0CE0101960E948C0AFF
:101070008091E8008E778093E8000F900F900F909A
:10108000DF91CF9108952091B1012430F1F422E055
:101090002093E9002FEF3091E800215035FD06C084
:1010A00035ED3A95F1F700002111F5CF2091E800D8
:1010B00025FF0BC040E050E065E070E00E948C0A24
:1010C0008091E8008E778093E8000895CF93DF93B6
:1010D000EC018091B101843039F581E08093E90021
:1010E0008FEF9091E800815095FD06C095ED9A959F
:1010F000F1F700008111F5CF8091E80085FF14C061
:1011000040E050E068E070E0CE010E948C0A8091DF
:10111000E8008E778093E80088E0FE01ADE3B1E05F
:1011200001900D928A95E1F7DF91CF9108958BE5BB
:1011300091E00E9498058091B001811109C00E9440
:10114000180C0E947A0C8091E20084608093E20087
:10115000089587E591E00E9498051092B0010895E6
:1011600083E591E00C94980580913B018F5F80931B
:101170003B0162E30E94F527911135C010923B01BB
:1011800080913C01882379F18091B101843049F547
:101190008091E9008F709091EC0090FF02C090E880
:1011A00001C090E0982B84E08093E9008091EB00EF
:1011B00080FF14C08091EE0087FF10C08091E8008E
:1011C00085FF03C01092F100F9CF8091E80080FF05
:1011D00005C08091E8008E778093E8009F7090931F
:1011E000E90010923C01089542E061EC81E00E9428
:1011F000920B42E061EC82E00E94920B42E061ECD3
:1012000083E00E94920B42E261EC84E00C94920B2A
:101210008091B301833009F453C030F4813071F010
:10122000823009F48CC008958A3009F478C08B307C
:1012300009F45EC0893009F09AC020C08091B201E3
:10124000813A09F094C08091E800877F8093E8009C
:101250008091B6019091B701892B21F060E080E088
:1012600090E003C068E08DE391E070E00E94D50A51
:101270008091E8008B778093E80008958091B20117
:10128000813209F074C08091B6019091B701892B29
:1012900009F06DC08091E800877F8093E80080911D
:1012A000E80082FD05C08091B1018111F8CF5FC0D7
:1012B0008091F100809345018091E8008B7753C0C5
:1012C0008091B201813A09F052C08091B6019091AB
:1012D000B701892B09F04BC08091E800877F80938C
:1012E000E8008091E80080FFFCCF80910B0136C0C0
:1012F0008091B2018132D9F58091B6019091B70108
:10130000892BA9F58091E800877F8093E8000E94EF
:10131000C70B8091B40180930B010C94E014809171
:10132000B201813221F58091E800877F8093E80047
:101330000E94C70B8091B50180934601089580916A
:10134000B201813AA1F48091E800877F8093E800A0
:101350008091E80080FFFCCF809146018093F100EE
:101360008091E8008E778093E8000C94C70B089575
:101370000895089508958FE491E00E9498050C94D3
:10138000BA090E942A1B8091AF01882329F00E948C
:10139000521B81110C94760A089584B7877F84BF0D
:1013A00088E10FB6F89480936000109260000FBE41
:1013B00090E080E80FB6F89480936100909361000C
:1013C0000FBE0E94B8090E94880F0E94180C0E944C
:1013D0007A0C8091E20084608093E20088E797E0D5
:1013E0000E94E51A78948091B1018430E1F78AE394
:1013F00091E00E9498050E948A0F81E091E00E948E
:10140000FA0E89E291E00E9498050E94B909809144
:10141000B101853039F485E291E00E9498050E947F
:10142000C109F5CF0E94900FF2CF0C94671B8BE49B
:1014300091E00E9498050C94150A292F3327233038
:101440003105A9F06CF42130310509F442C0223095
:10145000310509F043C084E790E023E831E042C061
:1014600021323105C9F02232310519F137C09927EF
:101470008130910541F08230910541F0892B71F561
:10148000EFE7F1E005C0EBE6F1E002C0EFE5F1E0E7
:10149000849190E09F0126C0643000F5E62FF0E0D3
:1014A000EE0FFF1FE05EFE4F2081318189E090E06A
:1014B00019C0643098F4E62FF0E0DF01AA0FBB1FDB
:1014C000A85EBE4F2D913C91EC5EFE4F808190E076
:1014D00009C082E190E027EF31E004C080E090E0B5
:1014E00020E030E0FA0131832083089584E189BD52
:1014F00086E189BD09B400FEFDCF8091D8008F7DC3
:101500008093D8008091E00082608093E000809119
:10151000E00081FDFCCF0895CF92DF92EF92FF9221
:101520000F931F93CF93DF937C018B01EA010E94FD
:10153000E80B811131C0209731F088819981081B17
:10154000190BE80EF91EC12CD12C0115110519F14A
:101550008091E80085FD14C08091E8008E7780932B
:10156000E800209741F0888199818C0D9D1D998319
:10157000888385E011C00E94E80B882331F30CC0FA
:10158000F70181917F018093F10001501109FFEF74
:10159000CF1ADF0ADACF80E0DF91CF911F910F9150
:1015A000FF90EF90DF90CF9008952091B801309197
:1015B000B9012617370748F06115710539F42091F4
:1015C000E8002E772093E80001C0B901FC0120E07B
:1015D0006115710599F18091B1018823E9F1853098
:1015E000E9F18091E80083FD3BC08091E80082FF33
:1015F00006C08091E80082FF24C080E008958091B9
:10160000E80080FFE5CF8091F2009091F300611532
:10161000710551F08830910538F421912093F10043
:10162000615071090196F3CF21E0089709F020E09D
:101630008091E8008E778093E800CACF2111CBCF4C
:10164000D8CF8091B101882339F0853039F080916D
:10165000E80083FFCECF04C082E0089583E00895C0
:1016600081E008952091B8013091B901261737071C
:1016700048F06115710539F42091E8002E77209328
:10168000E80001C0B901FC0120E061157105B1F16C
:101690008091B101882309F43FC0853009F43EC030
:1016A0008091E80083FD3CC08091E80082FF06C085
:1016B0008091E80082FF25C080E008958091E800D5
:1016C00080FFE3CF8091F2009091F30061157105E6
:1016D00059F08830910540F424912093F10031961F
:1016E000615071090196F2CF21E0089709F020E0DE
:1016F0008091E8008E778093E800C7CF2111C8CF92
:10170000D7CF8091B101882339F0853039F08091AD
:10171000E80083FFCDCF04C082E0089583E0089500
:1017200081E00895982F973058F59093E900981725
:1017300039F07091EC002091ED005091F00003C061
:10174000242F762F50E021FF19C03091EB003E7F0F
:101750003093EB003091ED003D7F3093ED00309100
:10176000EB0031603093EB007093EC002093ED00C0
:101770005093F0002091EE0027FF07C09F5FD3CF6A
:101780008F708093E90081E0089580E00895809152
:10179000B20187FD05C08091E80080FF0EC012C035
:1017A0008091E80082FD05C08091B1018111F8CFE0
:1017B00008958091E8008B7708C08091B101811174
:1017C000EACF08958091E8008E778093E80008952D
:1017D0008091E4009091E50045E62091EC0020FF27
:1017E00021C02091E80020FD21C02091B1012223D9
:1017F00089F0253089F02091EB0025FD0FC0209164
:10180000E4003091E5002817390739F3415041F0E1
:10181000C901E3CF82E0089583E0089581E008954F
:1018200084E008952091E80022FFDFCF80E0089552
:101830000E94890C0E94910CE0EEF0E080818160B2
:101840008083E8EDF0E080818F77808319BCA7ED7D
:10185000B0E08C918E7F8C9380818F7E80831092FC
:10186000B00108950F931F93CF93DF930E94890CCB
:101870000E94910CC8EDD0E088818F7788838881A1
:101880008068888388818F7D8883E7EDF0E08081A0
:101890008068808319BC1092B1011092AD01109242
:1018A000AF011092AE0100EE10E0F80180818B7F55
:1018B000808388818160888342E060E080E00E94CC
:1018C000920BE1EEF0E080818E7F8083E2EEF0E02B
:1018D000808181608083808188608083F80180813D
:1018E0008E7F8083888180618883DF91CF911F9173
:1018F0000F910895E8EDF0E080818F7E8083E7ED21
:10190000F0E080818160808381E08093B0010C945D
:10191000320CE8EDF0E080818C7F80831092E20051
:1019200008951092DA001092E10008951F920F922C
:101930000FB60F9211240BB60F922F933F934F9334
:101940005F936F937F938F939F93AF93BF93EF9327
:10195000FF938091E10082FF0BC08091E20082FF43
:1019600007C08091E1008B7F8093E1000E94B40862
:101970008091DA0080FF1FC08091D80080FF1BC0DB
:101980008091DA008E7F8093DA008091D90080FF09
:101990000DC084E189BD86E189BD09B400FEFDCF9B
:1019A00081E08093B1010E94970805C019BC109294
:1019B000B1010E94A9088091E10080FF19C08091C7
:1019C000E20080FF15C08091E2008E7F8093E200EC
:1019D0008091E20080618093E2008091D800806273
:1019E0008093D80019BC85E08093B1010E94BB09A7
:1019F0008091E10084FF30C08091E20084FF2CC020
:101A000084E189BD86E189BD09B400FEFDCF8091E6
:101A1000D8008F7D8093D8008091E1008F7E8093E5
:101A2000E1008091E2008F7E8093E2008091E200ED
:101A300081608093E2008091AD01882311F084E001
:101A400007C08091E30087FF02C083E001C081E00E
:101A50008093B1010E94170A8091E10083FF29C0A1
:101A60008091E20083FF25C08091E100877F809311
:101A7000E10082E08093B1011092AD018091E1001C
:101A80008E7F8093E1008091E2008E7F8093E20060
:101A90008091E20080618093E20042E060E080E0BB
:101AA0000E94920B8091F00088608093F0000E9469
:101AB000B008FF91EF91BF91AF919F918F917F916E
:101AC0006F915F914F913F912F910F900BBE0F90AF
:101AD0000FBE0F901F9018951F920F920FB60F9286
:101AE00011240BB60F922F933F934F935F936F93F5
:101AF0007F938F939F93AF93BF93CF93EF93FF9376
:101B0000C091E900CF708091EC001092E9008091C3
:101B1000F000877F8093F00078940E94AC0D1092C3
:101B2000E9008091F00088608093F000C093E900A4
:101B3000FF91EF91CF91BF91AF919F918F917F9145
:101B40006F915F914F913F912F910F900BBE0F902E
:101B50000FBE0F901F9018951F93CF93DF93CDB7B3
:101B6000DEB7AA970FB6F894DEBF0FBECDBFE2EB8B
:101B7000F1E08091F100819321E0EA3BF207C9F79F
:101B80000E9408098091E80083FF1CC12091B201E6
:101B90003091B301832F90E08A30910508F012C193
:101BA000FC01E45BFF4F0C941528203881F02238AB
:101BB00009F008C18091B6018F708093E90080918F
:101BC000EB0085FB882780F91092E90006C0809120
:101BD000AE019091AF01911182609091E800977FE2
:101BE0009093E8008093F1001092F100C5C0822F1D
:101BF0008D7F09F0E7C0222319F0223061F0E2C0A6
:101C00008091B401813009F0DDC0333009F080E00B
:101C10008093AF0128C08091B401811124C020912C
:101C2000B6012F7009F4CEC02093E9008091EB003B
:101C300080FF19C08091EB00333011F4806211C035
:101C400080618093EB0081E090E0022E01C0880F5C
:101C50000A94EAF78093EA001092EA008091EB0080
:101C600088608093EB001092E9008091E800877F04
:101C700086C02111A7C01091B4011F778091E300A5
:101C80008078812B8093E3008091E800877F8093A8
:101C9000E8000E94C70B8091E80080FFFCCF809194
:101CA000E30080688093E300112311F083E001C01A
:101CB00082E08093B10186C02058223008F082C0B3
:101CC0008091B4019091B5018C3D23E0920779F5A4
:101CD00083E08A838AE289834FB7F894DE01139602
:101CE00020E03EE051E2E32FF0E050935700E49112
:101CF00020FF03C0E295EF703F5FEF708E2F90E002
:101D0000EA3010F0C79601C0C0968D939D932F5F67
:101D1000243149F74FBF8091E800877F8093E80026
:101D20006AE270E0CE0101960E94D50A14C0AE01AD
:101D30004F5F5F4F6091B6010E941D0A009709F442
:101D400041C02091E800277F2093E800BC018981F1
:101D50009A810E94320B8091E8008B778093E80093
:101D600031C0203879F58091E800877F8093E800C2
:101D70008091AD018093F1008091E8008E7780938F
:101D8000E8000E94C70B1EC021111CC09091B40135
:101D90009230C0F48091E800877F8093E8009093B0
:101DA000AD010E94C70B8091AD01811104C08091EB
:101DB000E30087FF02C084E001C081E08093B101AD
:101DC0000E94F4088091E80083FF0AC08091E80037
:101DD000877F8093E8008091EB0080628093EB0026
:101DE000AA960FB6F894DEBF0FBECDBFDF91CF919C
:101DF0001F91089590934C0180934B010895E091B9
:101E00004B01F0914C01309721F00190F081E02DD1
:101E1000099480E00895FF920F931F93CF93DF936F
:101E20008C01E0914B01F0914C01309799F10280C7
:101E3000F381E02D099580919C0182FF2BC080FFEA
:101E400004C083EF92E00E949805E80188E0F82E34
:101E50000DEE12E080919C0180FF0BC088811F92E3
:101E60008F931F930F930E9431060F900F900F9046
:101E70000F90FA942196F110EDCF80919C0180FF94
:101E800009C08BEE92E0DF91CF911F910F91FF90EF
:101E90000C949805DF91CF911F910F91FF900895B9
:101EA000E0914B01F0914C01309721F00480F581D5
:101EB000E02D099408952091490130914A0182173B
:101EC000930771F090934A0180934901E0914B018F
:101ED000F0914C01309721F00680F781E02D0994B4
:101EE000089520914701309148018217930771F0BE
:101EF0009093480180934701E0914B01F0914C0190
:101F0000309721F00084F185E02D0994089508951B
:101F10000C94870F0E94921B0E9459060C94AB1DD3
:101F2000CF92DF92EF92FF920F931F93CF93DF93A5
:101F300000D000D000D0CDB7DEB70E948E063EE4C0
:101F4000E32E31E0F32E00E010E0C02E802F0E943F
:101F50002107F701D1907F01D826B1F40F5F1F4F01
:101F60000330110591F78FEF89838A831B820E94CA
:101F70009B1B8160782F9D838C8349815A816B8163
:101F80008D810E944F1048C090919C0191FF04C028
:101F90008E830E9427078E8120E030E04D2D50E097
:101FA000922FBA01022E02C0759567950A94E2F746
:101FB00060FF2CC02983CA82EE24E394F12C02C076
:101FC000EE0CFF1C9A95E2F790E08E219F2121E014
:101FD000892B09F420E02B830E949B1B8160782FC2
:101FE0009D838C8349815A816B818D810E944F1022
:101FF00049815A816B817C818D810E94181BF80177
:10200000E25BFE4F80818E25808306C02F5F3F4FAD
:102010002530310529F6A2CF0E94171B0E942B21E3
:1020200010914D010E94FF0E181741F10E94FF0E02
:1020300080934D0190919C0192FF0EC090FF0CC0C7
:102040001F928F9385E093E09F938F930E943106B8
:102050000F900F900F900F9080914D0126960FB624
:10206000F894DEBF0FBECDBFDF91CF911F910F91CE
:10207000FF90EF90DF90CF900C94271B26960FB621
:10208000F894DEBF0FBECDBFDF91CF911F910F91AE
:10209000FF90EF90DF90CF9008950C946E07CF9350
:1020A000DF93CDB7DEB72B970FB6F894DEBF0FBE28
:1020B000CDBF4F83588769877A878B878A859B85B1
:1020C000892B31F05F3F11F080E003C04F3FE1F713
:1020D00081E0811107C04F81588569857A858B859C
:1020E0000E94181BDE01119686E0FD0111928A956F
:1020F000E9F785E0FE01379601900D928A95E1F7A8
:1021000049815A816B817C818D819E810E94AC17AF
:102110002B960FB6F894DEBF0FBECDBFDF91CF91E7
:102120000895CF93C82F882309F4CCC0823859F47E
:102130000E94FF0E81FDC6C089E30E943E1A0E94E4
:10214000BF1A89E30CC0833879F40E94FF0E80FD2A
:10215000B9C083E50E943E1A0E94BF1A83E50E941F
:102160005F1ACF910C94BF1A843859F40E94FF0E65
:1021700082FDA8C087E40E943E1A0E94BF1A87E42D
:10218000EECF8CEF8C0F813A48F48C2F0E94812582
:10219000811198C08C2F0E943E1AE3CF80E28C0FF1
:1021A000883048F4C77081E001C0880FCA95EAF70B
:1021B0000E94831AD6CF8BE58C0F833078F4C53A12
:1021C00029F0C63A31F482E890E005C081E890E059
:1021D00002C083E890E0CF910C945B0F88E58C0FF0
:1021E000853108F06FC0C83A61F1C93A69F1CA3A5D
:1021F00071F1CB3A79F1CC3A81F1CD3A89F1CE3A0D
:1022000091F1CF3A99F1C13BA1F1C03BA9F1C23B99
:10221000B1F1C33BB9F1C43BC1F1C53BC9F1C63B08
:10222000D1F1C73BD9F1C83BE1F1C93BE9F1CA3B68
:10223000F1F1CB3BF9F1CC3B09F03FC08AE292E0EF
:102240003EC082EE90E03BC089EE90E038C08AEE5E
:1022500090E035C085EB90E032C086EB90E02FC077
:1022600083EB90E02CC084EB90E029C087EB90E0FA
:1022700026C08CEC90E023C08DEC90E020C083E879
:1022800091E01DC08AE891E01AC082E991E017C090
:1022900084E991E014C081E292E011C083E292E00F
:1022A0000EC084E292E00BC085E292E008C086E2B4
:1022B00092E005C087E292E002C080E090E0CF911A
:1022C0000C94710FCF910895882309F44BC0823884
:1022D00059F40E94FF0E81FF45C089E30E943E1A17
:1022E0000E94BF1A89E30CC0833871F40E94FF0E6C
:1022F00080FF38C083E50E943E1A0E94BF1A83E522
:102300000E945F1A0C94BF1A843859F40E94FF0E81
:1023100082FF28C087E40E943E1A0E94BF1A87E409
:10232000EFCF9CEF980F913A58F390E2980F9830C6
:1023300050F4877091E001C0990F8A95EAF7892FD0
:102340000E94891ADFCF9BE5980F933020F480E03C
:1023500090E00C945B0F885A853120F480E090E087
:102360000C94710F0895882321F00E94831A0C9415
:10237000BF1A0895882321F00E94891A0C94BF1A6D
:102380000895CF92DF92EF92FF920F931F93CF9316
:10239000DF93CDB7DEB728970FB6F894DEBF0FBE38
:1023A000CDBF8C0185E0F801DE01119601900D9200
:1023B0008A95E1F7F80140813181F28025812295EB
:1023C0002F7083819481892B31F03F3F31F481E07C
:1023D0004F3F19F403C081E001C080E080FDCFC20F
:1023E00049833A8389819A812F830E94FC199E83B5
:1023F00088870E94FB190E9403194E81E42FE29501
:10240000EF70F0E0EA5AFF4F2F8168850C94152891
:10241000842F807F142F1F70882311F01295107F56
:10242000FF2059F0112309F45FC2812F68870E94B1
:10243000961A0E94BF1A688557C2862F0E9464119F
:10244000112309F49CC2812F0E949C1A28960FB672
:10245000F894DEBF0FBECDBFDF91CF911F910F91DA
:10246000FF90EF90DF90CF900C94BF1A842F807F65
:10247000942F9F70E92E803219F0E29480EFE822C9
:10248000662319F0613001F129C0FF20A9F08E2DDB
:10249000222349F1213039F528960FB6F894DEBF92
:1024A0000FBECDBFDF91CF911F910F91FF90EF90A5
:1024B000DF90CF900C94A61A222319F0213009F452
:1024C0005EC20E94A91A2CC0FF20E9F0263008F055
:1024D00056C20E94801A8E2129F022C0FF20F1F0FE
:1024E000211115C08E2D28960FB6F894DEBF0FBEB1
:1024F000CDBFDF91CF911F910F91FF90EF90DF90B3
:10250000CF900C94B311253008F039C209C0F801FE
:10251000858180FFE9C18F708583E4CF2111F8C1E7
:102520008E2D66C1242F26952695237030E0211527
:10253000310521F021303105C9F021C2FF2021F001
:10254000862F942F937002C080E090E028960FB6FB
:10255000F894DEBF0FBECDBFDF91CF911F910F91D9
:10256000FF90EF90DF90CF900C945B0FFF2021F055
:10257000862F942F937002C080E090E028960FB6CB
:10258000F894DEBF0FBECDBFDF91CF911F910F91A9
:10259000FF90EF90DF90CF900C94710F862FFF206B
:1025A00019F00E94B11F02C00E94192028960FB690
:1025B000F894DEBF0FBECDBFDF91CF911F910F9179
:1025C000FF90EF90DF90CF900C949E20842F83702B
:1025D00009F076C0F110D3C1262F229526952770D9
:1025E000220F220F862F8F70C82ED12CE12CF12CB8
:1025F000022E04C0CC0CDD1CEE1CFF1C0A94D2F78A
:1026000064FF10C06FE070E080E090E004C0660FEF
:10261000771F881F991F2A95D2F76095709580952E
:10262000909503C060E070E0CB01242F269526959D
:102630002370422F50E042305105D1F04330510514
:1026400059F16C297D298E299F294130510541F18D
:1026500028960FB6F894DEBF0FBECDBFDF91CF91A5
:102660001F910F91FF90EF90DF90CF900C9428195D
:102670006C297D298E299F2928960FB6F894DEBFF4
:102680000FBECDBFDF91CF911F910F91FF90EF90C3
:10269000DF90CF900C9442190E942819C701B6010F
:1026A00028960FB6F894DEBF0FBECDBFDF91CF9155
:1026B0001F910F91FF90EF90DF90CF900C940E1927
:1026C000FF2019F0842F817001C08695882309F4BA
:1026D00056C1262F229526952770220F220F862F6E
:1026E0008F70C82ED12CE12CF12C022E04C0CC0C02
:1026F000DD1CEE1CFF1C0A94D2F764FF10C06FE0D3
:1027000070E080E090E004C0660F771F881F991F7B
:102710002A95D2F7609570958095909503C060E0FA
:1027200070E0CB01242F269526952370422F50E090
:1027300042305105D1F04330510559F16C297D29C2
:102740008E299F294130510541F128960FB6F89402
:10275000DEBF0FBECDBFDF91CF911F910F91FF90D4
:10276000EF90DF90CF900C94D7196C297D298E299A
:102770009F2928960FB6F894DEBF0FBECDBFDF911C
:10278000CF911F910F91FF90EF90DF90CF900C941D
:10279000E9190E94D719C701B60128960FB6F89417
:1027A000DEBF0FBECDBFDF91CF911F910F91FF9084
:1027B000EF90DF90CF900C94C519603F49F118F469
:1027C000603E48F48CC0623F09F451C0E0F1633FC1
:1027D00009F461C084C0162F1F70842F8F71FF20F1
:1027E00021F00E947019812F7ECE0E948B19812FBB
:1027F00028960FB6F894DEBF0FBECDBFDF91CF9104
:102800001F910F91FF90EF90DF90CF900C94BA1131
:10281000FF20A9F0253008F0B2C0842F8F712896D0
:102820000FB6F894DEBF0FBECDBFDF91CF911F91E1
:102830000F91FF90EF90DF90CF900C94AA19263063
:1028400008F09DC0EACFFF20A1F0842F8F71289659
:102850000FB6F894DEBF0FBECDBFDF91CF911F91B1
:102860000F91FF90EF90DF90CF900C947019FF20A4
:1028700061F3842F8F7128960FB6F894DEBF0FBED8
:10288000CDBFDF91CF911F910F91FF90EF90DF901F
:10289000CF900C948B19FF2091F0842F8F71289684
:1028A0000FB6F894DEBF0FBECDBFDF91CF911F9161
:1028B0000F91FF90EF90DF90CF900C9461192896C4
:1028C0000FB6F894DEBF0FBECDBFDF91CF911F9141
:1028D0000F91FF90EF90DF90CF900C945C19FF2048
:1028E000A1F0222309F4B1CF862F28960FB6F894D1
:1028F000DEBF0FBECDBFDF91CF911F910F91FF9033
:10290000EF90DF90CF900C949110222309F4B1CF77
:10291000862F28960FB6F894DEBF0FBECDBFDF918D
:10292000CF911F910F91FF90EF90DF90CF900C947B
:1029300064114F70C8010E94551D28960FB6F89477
:10294000DEBF0FBECDBFDF91CF911F910F91FF90E2
:10295000EF90DF90CF900C9459184F70C8012896D3
:102960000FB6F894DEBF0FBECDBFDF91CF911F91A0
:102970000F91FF90EF90DF90CF900C94581D289608
:102980000FB6F894DEBF0FBECDBFDF91CF911F9180
:102990000F91FF90EF90DF90CF9008950E94A31ABF
:1029A0000E94721A0E94BF1A0E94CC210E949E208F
:1029B00080E090E00E945B0F80E090E00C94710F4B
:1029C0000E94931A0C94CE140E94FC19292F229570
:1029D0002F7030E02C3031054CF42A3031056CF486
:1029E000225031092230310590F407C02C303105D6
:1029F00051F02F30310539F00AC0803E10F0803F91
:102A000031F481E0089593FB882780F9089580E0F0
:102A10000895CF93DF9300D000D01F92CDB7DEB7DB
:102A20000F900F900F900F900F90DF91CF9108951E
:102A3000CF93DF9300D000D000D0CDB7DEB726967D
:102A40000FB6F894DEBF0FBECDBFDF91CF910895D2
:102A50001F93CF93DF93C091510116E080915201F3
:102A6000C81799F0D0E01C9FF0011D9FF00D1124B4
:102A7000ED5AFE4F4081518162817381848195813D
:102A80000E9418152196C770E9CFDF91CF911F9151
:102A90000895409183015091840160918501709166
:102AA000860180918701909188010C941815CF932D
:102AB0008091880182958F7009F05FC080918501B7
:102AC000882309F45AC020915101A09152016091CC
:102AD000830170918401809186019091870131E09A
:102AE0006F3F09F030E0B32FC6E02A1709F445C064
:102AF000009721F07F3F21F44B2F03C041E001C03C
:102B000040E030E040FD35C0C29FF001C39FF00DB2
:102B10001124ED5AFE4F418174132BC04081641380
:102B200028C04281411125C043815481481759076B
:102B300010F441505109481B590B483C5105C8F449
:102B4000809188018F7080618093880186E0829FE8
:102B5000F001839FF00D1124E85AFE4F80818F70A1
:102B60008061808383E891E00E94C111CF910C9431
:102B700028152F5F3F4F2770B8CFCF910895CF9280
:102B8000DF92EF92FF920F931F93CF93DF93CDB716
:102B9000DEB762970FB6F894DEBF0FBECDBF8C01D3
:102BA00085E0F801DE011D9601900D928A95E1F70E
:102BB000D8014C9111965C91119712966C911297D5
:102BC0001396ED90FC90149770918301E09184012D
:102BD00020918601309187012115310531F0EF3FB9
:102BE00031F481E07F3F19F403C081E001C080E04F
:102BF000B82FB170CB2E80FD6CC1D0908501DD2047
:102C000009F4F5C0F0918801E216F30638F0C70127
:102C1000821B930B883C910548F09BC02095309512
:102C20002E0D3F1D283C310508F093C08F2F807F6B
:102C300009F052C0E51314C0741312C0D62E6111EE
:102C40000FC0FF70F061F09388010E94491583E87E
:102C500091E00E94C11180918801F80185836CC1C7
:102C6000EF2831F05F3F31F481E04F3F19F403C0AA
:102C700081E001C080E080FD03C081E0862701C0C3
:102C800080E0F82FF170FF2E80FF1CC08091510171
:102C90002091520136E0821709F428C190E0389F54
:102CA000F001399FF00D1124ED5AFE4F7181571339
:102CB00006C07081471303C07281671303C0019679
:102CC0008770E9CFD62E662309F436C1809188013A
:102CD00081608093880153C0E51308C0741306C057
:102CE000611104C0D8011596FC93AEC04D875E8774
:102CF0008D859E856A8B0E94E4146A89882329F158
:102D0000D62E662311F120918801822F82958F7033
:102D100090E002970CF460C080918301909184014F
:102D200098878F831986FB86EA862C87CE010796C3
:102D300051C0E51731F14D875E878D859E856A8B81
:102D40000E94E4146A8981112EC0C8010E94C11139
:102D5000A4C08F2F807F69F77E2DF98AE88A898940
:102D60000E94091583E891E00E94C111E3E8F1E0B7
:102D700086E0DF011D928A95E9F70E944915D12C62
:102D8000DBC07413D8CF6111D6CFD8011596FC9350
:102D9000C8010E94C111E3E8F1E086E0DF011D9265
:102DA0008A95E9F7C9C0D62E662379F22091880169
:102DB000822F82958F7090E0029774F0809183014A
:102DC000909184019A8389831B82FD82EC822E83F9
:102DD000CE0101960E94C11186E0F801A3E8B1E09E
:102DE00001900D928A95E1F70E9457156FC0E21687
:102DF000F30628F0C701821B930B9C0104C02095A9
:102E000030952E0D3F1D283C310508F052C0D62EBE
:102E1000662309F49ACFE5132CC074132AC080915D
:102E2000880180FD1DC0982F92959F70C9F0D80130
:102E300015968C9315979F3039F09F5F9295907FF0
:102E40008F70892B15968C93C8010E94C11186E062
:102E5000F801A3E8B1E001900D928A95E1F736C040
:102E600086E0F801A3E8B1E001900D928A95E1F7C0
:102E700063C04D875E878D859E850E94E4148823FC
:102E800079F086E0F801A3E8B1E001900D928A950F
:102E9000E1F70E9457150E944915DD24D3944CC0D8
:102EA00080918801816080938801C8010E94C111CE
:102EB00043C07E2DF98AE88A89890E940915E3E8D2
:102EC000F1E086E0DF011D928A95E9F70E9449153D
:102ED00033C0662309F439CF4D875E878D859E8583
:102EE0000E94E414882309F430CFCBCF4D875E874E
:102EF0008D859E850E94FC19292F22952F7030E028
:102F0000223031052CF49F7041F0811106C00CC0B5
:102F1000243031052CF49F7049F4805E883020F015
:102F2000C8010E94C111CF2CDC2C06C0D801159617
:102F30009C91907F91F7F8CF8D2D62960FB6F89403
:102F4000DEBF0FBECDBFDF91CF911F910F91FF90DC
:102F5000EF90DF90CF9008951F93CF93DF93CDB77D
:102F6000DEB72C970FB6F894DEBF0FBECDBF4F83F0
:102F7000588769877A878B879C87CE0107960E943E
:102F8000BF158823C1F02F8138858A859B85892BC1
:102F900031F03F3F11F080E003C02F3FE1F781E0C7
:102FA000811147C04F81588569857A858B859C85BD
:102FB0000E9418153EC086E0FE013796DE0111968C
:102FC00001900D928A95E1F7FF81E8854A855B853E
:102FD0004115510531F0EF3F31F481E0FF3F19F425
:102FE00003C081E001C080E080FD23C02091520138
:102FF00030E0C9010196877099276091510170E016
:1030000086179707F1F1F983EA835D834C8396E095
:10301000929FD001939FB00D1124AD5ABE4FFE0177
:10302000319601900D929A95E1F7809352010E949A
:10303000281516E08091510190915201891779F17C
:10304000189FC00111248D5A9E4F0E94BF158823DE
:1030500031F1E09151011E9FF0011124ED5AFE4F14
:103060004081518162817381848195810E9418150C
:103070008091510190E001968770992780935101CA
:10308000D9CF0E94E0141092520110925101E3E84E
:10309000F1E086E0DF011D928A95E9F7CACF2C9610
:1030A0000FB6F894DEBF0FBECDBFDF91CF911F9159
:1030B0000895DF92EF92FF920F931F93CF93DF93C8
:1030C000FC01009709F48AC0E12CF12CDD24D39493
:1030D000EF0121968491853709F461C058F4843753
:1030E00008F04EC0843008F06AC08130D1F08230E0
:1030F00071F174C0883709F45DC050F4863709F463
:1031000055C0873709F06AC08E2D0E94901A54C0AE
:103110009CE7980F903708F061C08F770E94641188
:1031200050C08F010E5F1F4FFE01849190E2980FF7
:10313000983050F48770FD2D01C0FF0F8A95EAF793
:103140008F2F0E94961A15C00E94911014C08F01F3
:103150000E5F1F4FFE01849190E2980F983068F443
:103160008770FD2D01C0FF0F8A95EAF78F2F0E940F
:103170009C1A0E94BF1AE80124C00E946411FBCF70
:103180009F012E5F3F4FFE01C491CC2369F08FE970
:103190009FE00197F1F700C00000C150F6CF9F01FA
:1031A0002E5F3F4FFE01F490E9010BC00E94801A90
:1031B000E82E07C00E94931A0E94BF1A02C00E9404
:1031C00091109F2D992341F0EFE9FFE03197F1F73E
:1031D00000C000009150F6CFFE017ACFDF91CF9171
:1031E0001F910F91FF90EF90DF90089560938901F8
:1031F00070938A0180938B0190938C01862F0E949B
:10320000161B0C94CE14089560938D0170938E015B
:1032100080938F01909390010C94CE140F931F9381
:1032200000918D0110918E0120918F0130919001BC
:10323000062B172B282B392B00938D0110938E0111
:1032400020938F01309390011F910F910C94CE1415
:103250000F931F9300918D0110918E0120918F018A
:1032600030919001062317232823392300938D01E1
:1032700010938E0120938F01309390011F910F9135
:103280000C94CE140F931F9300918D0110918E0119
:1032900020918F0130919001062717272827392781
:1032A00000938D0110938E0120938F013093900134
:1032B0001F910F910C94CE1460E070E0CB010C9440
:1032C000F61841E050E060E070E004C0440F551F84
:1032D000661F771F8A95D2F7CB01BA010C94F618B6
:1032E00041E050E060E070E004C0440F551F661FED
:1032F000771F8A95D2F78091890190918A01A091D8
:103300008B01B0918C01482B592B6A2B7B2BCB0165
:10331000BA010C94F61841E050E060E070E004C09F
:10332000440F551F661F771F8A95D2F74095509519
:10333000609570958091890190918A01A0918B018F
:10334000B0918C01482359236A237B23CB01BA0116
:103350000C94F61841E050E060E070E004C0440FC7
:10336000551F661F771F8A95D2F78091890190912A
:103370008A01A0918B01B0918C01482759276A27B7
:103380007B27CB01BA010C94F6180F931F93009181
:10339000890110918A0120918B0130918C01602B61
:1033A000712B822B932B1F910F910C94F6180F9376
:1033B0001F930091890110918A0120918B01309116
:1033C0008C0160237123822393231F910F910C940E
:1033D000F6180F931F930091890110918A01209193
:1033E0008B0130918C0160277127822793271F91D1
:1033F0000F910C94F6180895CF92DF92EF92FF92FE
:103400000F931F93CF93DF93EC01C0908D01D09069
:103410008E01E0908F01F090900180918901909150
:103420008A01A0918B01B0918C01C82AD92AEA2A7D
:10343000FB2A0FE110E0B701A601002E04C076952B
:103440006795579547950A94D2F740FF07C0BE018C
:10345000802F0E94E21C8130910539F4015011093E
:1034600050F7BE0180E00E94E21CDF91CF911F91D6
:103470000F91FF90EF90DF90CF90089540910C0155
:1034800050910D0120E030E09FEFFA01E20FF31FB1
:103490006281681799F09F3F19F4611101C0922F62
:1034A0002F5F3F4F2630310581F79F3F39F0FA01FA
:1034B000E90FF11D97FDFA958283089508954091D3
:1034C0000C0150910D0120E030E0FA01E20FF31FF2
:1034D0009281981301C012822F5F3F4F2630310531
:1034E000A1F7089581E090E0E0910C01F0910D01C9
:1034F000E80FF91F1082019688309105A9F7089509
:1035000080919B01089590919B01982B90939B0132
:103510000895809590919B01982390939B01089525
:1035200080939B01089510929B01089590919A01B8
:10353000982B90939A010895809590919A019823E1
:1035400090939A01089510929A01089580939101A1
:10355000089510929101089540910C0150910D0130
:1035600020E030E080E0FA01E20FF31F9181911139
:103570008F5F2F5F3F4F27303105A9F70895E09106
:103580000C01F0910D0180919B018083E0910C0171
:10359000F0910D01808190919A01892B8083909107
:1035A0009101992361F0E0910C01F0910D0180816E
:1035B000892B80830E94AC1A811110929101809115
:1035C0000C0190910D010C940B0F9093330180939B
:1035D000320108958295982F9C7C969596958373D9
:1035E00044E0849F90011124922B892F8A7A86953A
:1035F0009575990F892B08951F93CF93DF931F9291
:10360000CDB7DEB799830E94EA1A182F9981892FC6
:103610000E94EA1A212F30E0322F2227A901482BDD
:10362000CA010F90DF91CF911F91089508950895D9
:10363000CF93DF9300D000D01F92CDB7DEB70F90AD
:103640000F900F900F900F90DF91CF9108950C94F1
:103650004D1008958091B101843009F110929D01BF
:1036600020E488E190E00FB6F894A895809360007C
:103670000FBE2093600083B7817F846083BF83B7D0
:10368000816083BF7894889583B78E7F83BF88E1FC
:103690000FB6F89480936000109260000FBE0895FA
:1036A00008950895CF930E94501B0E948E060E9499
:1036B000511BC0E08C2F0E942107811105C0CF5FF4
:1036C000C330C1F780E001C081E0CF9108950C9430
:1036D000E0141F920F920FB60F9211248F939F93B5
:1036E000AF93BF9380919D01811113C080919E0182
:1036F00090919F01A091A001B091A1014196A11DBF
:10370000B11D80939E0190939F01A093A001B0935F
:10371000A101BF91AF919F918F910F900FBE0F901C
:103720001F90189582E084BD93E095BD9AEF97BDF8
:1037300080936E0008952FB7F89480919E01909128
:103740009F01A091A001B091A1012FBF08952FB7B3
:10375000F89460919E0170919F018091A0019091D9
:10376000A1012FBF0895CF92DF92EF92FF920F93A6
:103770001F932FB7F89440919E0150919F01609143
:10378000A0017091A1012FBF6A017B01EE24FF24EB
:103790008C0120E030E0C016D106E206F30610F4FA
:1037A00041505109481B590BCA011F910F91FF90BD
:1037B000EF90DF90CF9008951F920F920FB60F9267
:1037C00011248F939F93AF93BF9380919E0190910B
:1037D0009F01A091A001B091A1010196A11DB11D71
:1037E00080939E0190939F01A093A001B093A101AB
:1037F000BF91AF919F918F910F900FBE0F901F902F
:1038000018950E94180CF8942FEF87EA91E6215042
:1038100080409040E1F700C0000087E090EBDC01C1
:103820008093BB019093BC01A093BD01B093BE01F6
:103830002CE088E190E00FB6F894A89580936000A2
:103840000FBE20936000FFCF8D3B60F4883A80F577
:10385000853A28F5843008F5813009F06BC081E0A5
:1038600090E00895883E98F4803EB8F48F3B09F0CC
:1038700061C00E94E0142FEF80E792E02150804069
:103880009040E1F700C000000E94011C53C0803F3F
:1038900008F450C090E09065089590E00895853A4E
:1038A00009F44BC0863A09F04BC082E890E40895D1
:1038B000883A09F448C0893A09F448C08A3A09F4B8
:1038C00048C08B3A09F448C08C3A09F448C08D3A94
:1038D00009F448C08E3A09F448C08F3A09F448C048
:1038E000813B09F448C0803B09F448C0823B09F49D
:1038F00048C0833B09F448C0843B09F448C0853B79
:1039000009F448C0863B09F448C0873B09F448C025
:10391000883B09F448C0893B09F448C08A3B09F454
:1039200048C08B3B09F448C08C3B09F048C08AE290
:1039300096E4089580E090E0089581E890E4089589
:1039400083E890E4089582EE94E4089589EE94E487
:1039500008958AEE94E4089585EB94E4089586EB47
:1039600094E4089583EB94E4089584EB94E408953B
:1039700087EB94E408958CEC94E408958DEC94E442
:10398000089583E895E408958AE895E4089582E926
:1039900095E4089584E995E4089581E296E4089514
:1039A00083E296E4089584E296E4089585E296E43D
:1039B000089586E296E4089587E296E4089580E00B
:1039C00094E408950E943A06803EA8F4803C00F5F5
:1039D000813309F45CC038F4893209F452C08A3268
:1039E00009F45BC05FC08933B1F08238A1F0853340
:1039F00009F441C057C0833E41F128F4803E99F05C
:103A0000823EB9F04FC0863E31F1873E71F14AC027
:103A10000E94490608959091BA0190FD02C091FF5D
:103A200041C080EE3FC08091BA0180FFFACF89E3A8
:103A300039C08091BA0182FF0CC08091BA0184FF25
:103A400002C080E02FC083EE2DC08091BA0182FFBA
:103A5000F4CF82EE27C08091BA0183FF0AC0809123
:103A6000BA0184FDEECF87EE1DC08091BA0183FFBD
:103A7000F6CF86EE17C08091BA0185FF06C089E2B5
:103A800011C08091BA0185FFFACF85E30BC0809108
:103A9000BA0186FF06C08AE205C08091BA0186FF9E
:103AA000FACF81E30E94241C089580E090E00895FD
:103AB0000895DF92EF92FF920F931F93CF93DF93BE
:103AC0008C01D12C8D2D0E942107C0E0D0E0E82E82
:103AD000F12C97010C2E02C0359527950A94E2F738
:103AE00020FF16C06C2F7D2D80E00E94E21C9C01FF
:103AF0008017910759F0832F807E932F907C11F0CF
:103B0000803A31F430E02017310711F481E009C028
:103B10002196C530D105E9F6D39483E0D812D2CFEF
:103B200080E0DF91CF911F910F91FF90EF90DF9098
:103B30000895CF93DF93EC018CE290E00E94591D31
:103B4000882329F0CE01DF91CF910C94591D80E09C
:103B5000DF91CF910895CF930E940A1F811102C077
:103B60000E94F01E87E193E00E949805C5E6C150CF
:103B700049F00E948E068FE39CE90197F1F700C09F
:103B80000000F5CF80E193E00E94980589E290E083
:103B90000E94991D811122C18AE290E00E94991D24
:103BA00081110E94F01E85E090E00E94991D811114
:103BB0000E94011C0E94291B0E94151F80939C01DA
:103BC00087E090E00E94991D8823B1F18BE190E09D
:103BD0000E94991D882351F090919C0191FB8827A8
:103BE00080F921E0822780FB91F924C08EE090E0EB
:103BF0000E94991D882351F090919C0192FB882787
:103C000080F921E0822780FB92F914C080E190E0E6
:103C10000E94991D90919C01882341F093FB882775
:103C200080F921E0822780FB93F904C0892F8095D9
:103C300080FB90F990939C0180919C010E94191F38
:103C40000E94271F8093BA0180EE90E00E94991D88
:103C5000882341F08091BA01982F909590FB80F9CC
:103C60008093BA0189E390E00E94991D882359F05E
:103C70009091BA0191FB882780F921E0822780FB8F
:103C800091F99093BA0182EE90E00E94991D8823E9
:103C900059F09091BA0192FB882780F921E08227A0
:103CA00080FB92F99093BA0186EE90E00E94991DF4
:103CB000882359F09091BA0193FB882780F921E07D
:103CC000822780FB93F99093BA0183EE90E00E94E3
:103CD000991D882359F09091BA0194FB882780F9A7
:103CE00021E0822780FB94F99093BA0185E390E06C
:103CF0000E94991D882359F09091BA0195FB88275D
:103D000080F921E0822780FB95F99093BA0181E345
:103D100090E00E94991D882359F09091BA0196FB7A
:103D2000882780F921E0822780FB96F99093BA01D9
:103D300081E190E00E94991D882359F09091BA0189
:103D400097FB882780F921E0822780FB97F99093E1
:103D5000BA018091BA010E942B1F87E290E00E9475
:103D6000991DC82F8EE190E00E94991D8111C260BB
:103D70008FE190E00E94991D8111C46080E290E083
:103D80000E94991D8111C86081E290E00E94991DF6
:103D90008111C06182E290E00E94991D8111C06290
:103DA00083E290E00E94991D8111C06484E290E05A
:103DB0000E94991D882311F0C06802C0CC2329F00D
:103DC0008C2F0E94221F6C2F03C00E941E1F682F81
:103DD00070E080E090E0CF910C940419CF910895A9
:103DE0006DEE7EEF80E090E00E944B2860E082E084
:103DF00090E00E943D2860E083E090E00E943D2832
:103E000060E084E090E00E943D2860E085E090E082
:103E10000C943D2880E090E00E94372821E08D3E00
:103E20009E4F09F020E0822F089582E090E00C94EC
:103E30002F28682F82E090E00C943D2883E090E0EA
:103E40000C942F28682F83E090E00C943D2884E0A8
:103E500090E00C942F28682F84E090E00C943D288B
:103E60008091A40180FF0BC06091110185E0689FE3
:103E7000B001112475956795759567952AC081FFE6
:103E800009C06091110185E0689FB001112475950A
:103E900067951FC082FF07C06091110185E0689F90
:103EA000B001112416C04091A5014423C9F06091CE
:103EB0001001461788F72091110185E0289F900195
:103EC0001124429FC001439F900D112470E00E9475
:103ED00001286038710540F46115710539F002C0A0
:103EE00065E070E0862F08958FE7089581E00895DA
:103EF0008091A40180FF08C060910F0170E075956A
:103F000067957595679521C081FF06C060910F0187
:103F100070E07595679519C082FF04C060910F012C
:103F200070E010C08091A5018823C1F060910E015E
:103F30008617A0F790910F01989FC001112470E09F
:103F40000E9401286038710528F46115710521F07F
:103F5000862F08958FE7089581E0089561E070E06D
:103F6000F4CF803F21F40E94301F819504C0813F2F
:103F700029F40E94301F8093A8010895823F21F404
:103F80000E94301F819504C0833F29F40E94301F96
:103F90008093A7010895893F19F40E94781F05C0F6
:103FA0008A3F31F40E94781F81958093A90108957A
:103FB0008B3F21F40E94781F819504C08C3F29F427
:103FC0000E94781F8093AA010895843F21F4809174
:103FD000A601816017C0853F21F48091A60182600F
:103FE00011C0863F21F48091A60184600BC0873FF9
:103FF00021F48091A601886005C0883F31F480914A
:10400000A60180618093A60108958D3F21F48091DF
:10401000A40181600BC08E3F21F48091A4018260D5
:1040200005C08F3F29F48091A40184608093A4018E
:104030000895803F39F48091A80187FF6CC01092E9
:10404000A80169C0813F29F48091A8011816BCF32A
:1040500062C09091A701823F29F497FF5CC0109243
:10406000A70159C0833F19F41916CCF354C0893FF6
:1040700041F48091A90118160CF04DC01092A901CD
:104080004AC08A3F29F48091A90187FF44C0F6CF36
:104090008B3F39F48091AA0187FF3DC01092AA019D
:1040A0003AC08C3F29F48091AA011816BCF333C0A2
:1040B000843F21F48091A6018E7F17C0853F21F4B3
:1040C0008091A6018D7F11C0863F21F48091A601C9
:1040D0008B7F0BC0873F21F48091A601877F05C0AD
:1040E000883F31F48091A6018F7E8093A60113C092
:1040F0008D3F21F48091A4018E7F0BC08E3F21F46F
:104100008091A4018D7F05C08F3F29F48091A40187
:104110008B7F8093A4018091A70181110EC08091B3
:10412000A80181110AC08091A901811106C0809166
:10413000AA01811102C01092A501089580919C01ED
:1041400083FF7EC083E593E00E9498058091A601DD
:104150001F928F938EE493E09F938F930E9431067A
:104160008CE493E00E9498052091A701822F992763
:1041700087FD90959F932F9389E493E09F938F936E
:104180000E94310687E493E00E9498052091A801DF
:10419000822F992787FD90959F932F9384E493E036
:1041A0009F938F930E94310682E493E00E949805CA
:1041B0002091A901822F992787FD90959F932F9396
:1041C0008FE393E09F938F930E9431068DE393E0FA
:1041D0000E9498052091AA01822F992787FD90952A
:1041E0009F932F938AE393E09F938F930E943106CE
:1041F00087E393E00E9498058091A5011F928F9319
:1042000084E393E09F938F930E94310682E393E0CF
:104210000E9498058091A4011F928F938FE293E0F2
:104220009F938F930E9431068CE293E00E94980541
:104230008DB79EB74C960FB6F8949EBF0FBE8DBF3C
:1042400086EA91E00E94500F0E949B1B9093A3016D
:104250008093A20108951F93CF93DF938091A201D1
:104260009091A3010E94B31B4091A501442321F02A
:104270002091120130E006C0209113015AE0259FE1
:10428000900111248217930708F482C08091A7013E
:104290001091A801D091A901C091AA01811107C074
:1042A000111105C0D11103C0CC2309F471C04F3FD7
:1042B00019F04F5F4093A501181624F40E94301F97
:1042C0008093A7018091A70187FF05C00E94301F3E
:1042D00081958093A701111624F40E94301F8093CA
:1042E000A8018091A80187FF05C00E94301F819519
:1042F0008093A8016091A701662339F11091A8016C
:10430000112319F1772767FD7095872F972F0E944A
:10431000062723E333E343E35FE30E946A270E9417
:10432000D3266093A701612F772767FD7095872FAC
:10433000972F0E94062723E333E343E35FE30E94C2
:104340006A270E94D3266093A8011D1624F40E94B8
:10435000781F8093A9018091A90187FF05C00E9461
:10436000781F81958093A9011C1624F40E94781F60
:104370008093AA018091AA0187FF05C00E94781F3F
:1043800081958093AA01DF91CF911F910C949E207B
:10439000DF91CF911F910895E6EAF1E085E0DF011A
:1043A0001D928A95E9F71092A5011092A401089533
:1043B00086E795E00E9498051F9281E08F931F92F7
:1043C00085E08F9388E295E09F938F930E9431065A
:1043D0000F900F900F900F900F900F9008958330D3
:1043E000E9F128F4813061F0823009F108958530D7
:1043F00009F462C008F449C0863009F474C0089515
:1044000020911301862F90E0820F911D8F3F91051F
:1044100020F4620F6093130103C08FEF80931301A8
:10442000809113011F928F9381E694E072C02091D6
:104430001201862F90E0820F911D8F3F910520F48D
:10444000620F6093120103C08FEF8093120180917D
:1044500012011F928F938FE494E05BC020911101B1
:10446000862F90E0820F911D8F3F910520F4620FFF
:104470006093110103C08FEF8093110180911101AE
:104480001F928F938CE394E044C020911001862FFB
:1044900090E0820F911D8F3F910520F4620F609391
:1044A000100103C08FEF80931001809110011F92C3
:1044B0008F9387E294E02DC020910F01862F90E02A
:1044C000820F911D8F3F910520F4620F60930F01C1
:1044D00003C08FEF80930F0180910F011F928F9384
:1044E0008EE094E016C020910E01862F90E0820F9E
:1044F000911D8F3F910520F4620F60930E0103C060
:104500008FEF80930E0180910E011F928F9383EFA6
:1045100093E09F938F930E9431060F900F900F901E
:104520000F900895833081F128F4813059F0823062
:10453000D1F00895853009F449C0B8F1863009F406
:1045400056C0089580911301681720F4861B80934C
:10455000130102C010921301809113011F928F93D7
:1045600084EE93E054C080911201681720F4861BFA
:104570008093120102C010921201809112011F92C9
:104580008F9382ED93E043C080911101681720F46E
:10459000861B8093110102C01092110180911101BC
:1045A0001F928F938FEB93E032C0809110016817B8
:1045B00020F4861B8093100102C01092100180919C
:1045C00010011F928F938AEA93E021C080910F011E
:1045D000681720F4861B80930F0102C010920F0110
:1045E00080910F011F928F9381E993E010C0809119
:1045F0000E01681720F4861B80930E0102C01092F2
:104600000E0180910E011F928F9386E793E09F9396
:104610008F930E9431060F900F900F900F90089586
:10462000CF93C82F1F928F932BE736E03F932F93A2
:104630000E94310661E070E080E090E004C0660F07
:10464000771F881F991FCA95D2F70E9404190F90EF
:104650000F900F900F90CF910C94E014CF9387326E
:10466000B0F58E3108F03DC28E3009F4BDC100F5C1
:10467000873009F48DC1A8F4863009F036C28091E4
:104680009C01817F8E7F80939C0180E896E00E9450
:10469000980588E79AE00E94980581E08093AC0134
:1046A00075C1883009F43FC08B3009F46BC11DC25D
:1046B000863109F4DDC120F4803109F4A8C115C2A6
:1046C000893109F4BEC18B3109F47BC10EC2883334
:1046D00009F458C150F4893209F401C2853309F450
:1046E000FEC1873209F001C2FAC1833409F4F7C16F
:1046F00028F48A3308F4F9C18953F4C1883409F0E5
:10470000F4C10E94E01487E69AE00E9498059FEFAA
:1047100023ED80E3915020408040E1F700C000008D
:104720000E94011C33C18CE79AE00E94980587E73C
:1047300098E00E9498050E941E1F1F928F9384E7A5
:1047400098E09F938F930E94310682E798E00E9441
:1047500098050E94151FC82F8FE598E00E949805C4
:104760001F92CF932AE538E03F932F930E943106A2
:1047700088E598E00E9498058EE498E00E949805EC
:104780008C2F81701F928F932BE438E03F932F93EF
:104790000E94310689E498E00E9498058FE398E032
:1047A0000E949805C1FB882780F91F928F932CE304
:1047B00038E03F932F930E9431068AE398E00E94ED
:1047C00098058EE298E00E949805C2FB882780F940
:1047D0001F928F932BE238E03F932F930E94310674
:1047E00089E298E00E94980580E298E00E9498058E
:1047F000C3FBCC27C0F91F92CF938DE198E09F9324
:104800008F930E9431068BE198E00E9498050E94E8
:10481000271FC82F87E098E00E9498051F92CF932A
:1048200022E038E03F932F930E94310680E098E029
:104830000E94980587EE97E00E9498058C2F817062
:104840001F928F9324EE37E03F932F930E943106FF
:104850008DB79EB780960FB6F8949EBF0FBE8DBFE2
:1048600082EE97E00E9498058BEC97E00E949805F5
:10487000C1FB882780F91F928F9328EC37E03F9384
:104880002F930E94310686EC97E00E94980584EBF6
:1048900097E00E949805C2FB882780F91F928F93AA
:1048A00021EB37E03F932F930E9431068FEA97E088
:1048B0000E9498058DE997E00E949805C3FB882720
:1048C00080F91F928F932AE937E03F932F930E943C
:1048D000310688E997E00E9498058EE897E00E94EB
:1048E0009805C4FB882780F91F928F932BE837E047
:1048F0003F932F930E94310689E897E00E94980524
:1049000087E797E00E949805C5FB882780F91F92EA
:104910008F9324E737E03F932F930E94310682E77D
:1049200097E00E94980586E597E00E949805C6FBEF
:10493000882780F91F928F9323E537E03F932F93C9
:104940000E94310681E597E00E94980589E497E08E
:104950000E949805C7FBCC27C0F91F92CF9386E42D
:1049600097E09F938F930E94310684E497E00E9422
:1049700098058DB79EB74C960FB6F8949EBF0FBEA4
:104980008DBF04C087EA96E00E949805C1E0B2C0DE
:1049900080919C01C82FC17080FF09C08AE59AE010
:1049A0000E94980580919C01817F8E7F44C08EE497
:1049B0009AE00E94980580919C01816080939C01FF
:1049C000E5CF80919C0181FBCC27C0F991E0C927FC
:1049D000C0FB81F980939C01CC2319F081E49AE01B
:1049E00025C083E39AE0D0CF80919C0182FBCC2745
:1049F000C0F991E0C927C0FB82F980939C01CC23C8
:104A000019F084E29AE012C084E19AE0BDCF80916F
:104A10009C0183FBCC27C0F991E0C927C0FB83F937
:104A200080939C01CC2351F088E09AE00E94980585
:104A300080919C01816080939C015CC08BEF99E028
:104A4000A3CF8CEE99E00E94980583EC99E00E9438
:104A500098058EE899E00E94980581E699E00E9409
:104A6000980581E299E00E94980582EF98E08CCF4A
:104A700084EE98E00E9498050E94FF0E1F928F938B
:104A80008AEC98E09F938F930E94310680910B01EE
:104A90001F928F9383EB98E09F938F930E94310630
:104AA000809146011F928F9380EA98E09F938F93A5
:104AB0000E9431060E94A71B9F938F937F936F9351
:104AC00089E898E09F938F930E9431068DB79EB737
:104AD00042960FB6F8949EBF0FBE8DBF57CF80E0B1
:104AE00001C08D510E94102351CF87E898E00E94A9
:104AF0009805C0E08C2FCF91089580E0089580E064
:104B00000895CF93C82F8091AC01813071F020F0CF
:104B1000823009F448C03FC1A0910C01B0910D0151
:104B20008C91823209F039C107C0A0910C01B0917B
:104B30000D018C91823249F48C2F0E947D258111C8
:104B40002FC08C2F0E942E232CC08C2F0E947F25DB
:104B5000811126C0C431E1F070F4CB3081F0C03156
:104B6000D1F40E94D82183E796E00E94980582E064
:104B70008093AC0115C0C93259F0C83361F480E8A4
:104B800096E00E94980587E796E00E94980508C085
:104B90001092AC0104C181E796E00E949805FFC025
:104BA00081E08170FEC0C43228F5CE3108F0C1C06A
:104BB000CB30A1F1D0F4C73009F0D3C08EE180939F
:104BC000130182E3809312018AE08093110184E152
:104BD0008093100188E080930F0188E280930E019A
:104BE00087E195E00E949805BFC0C33149F1C43107
:104BF000C1F0B7C0CB3409F4A9C028F4C93289F098
:104C0000C83361F0AEC0C13509F49EC0C23509F4A5
:104C100099C0CE3409F0A5C06AE09EC00E94D82198
:104C2000A3C08091AB01882319F01092AB019CC006
:104C300084E295E00E94980581E08093AC01B1C0C8
:104C40008EEF94E00E9498058CEE94E00E94980507
:104C5000809113011F928F9389EE94E09F938F931D
:104C60000E94310687EE94E00E94980585ED94E05D
:104C70000E949805809112011F928F9382ED94E01B
:104C80009F938F930E94310680ED94E00E949805D7
:104C900081EC94E00E949805809111011F928F93FE
:104CA0008EEB94E09F938F930E9431068CEB94E0FF
:104CB0000E9498058BEA94E00E949805809110016B
:104CC0001F928F9388EA94E09F938F930E943106FE
:104CD00086EA94E00E94980581E994E00E94980594
:104CE00080910F011F928F938EE894E09F938F9392
:104CF0000E9431068CE894E00E94980585E794E0D4
:104D00000E94980580910E011F928F9382E794E094
:104D10009F938F930E94310680E794E00E9498054C
:104D20008DB79EB748960FB6F8949EBF0FBE8DBF45
:104D30001BC0CE51EC2FF0E0E85DFE4F80818093E8
:104D4000AB0112C061E003C061E006C06AE080917F
:104D5000AB010E94EF2108C08091AB010E9492221A
:104D600003C085E195E013C08091AB01882369F011
:104D70001F928F938FE095E09F938F930E9431064F
:104D80000F900F900F900F9004C08CE095E00E9460
:104D9000980581E006C01092AC0180E002C080E07E
:104DA00000CFCF91089504D06894B1118DC00895BB
:104DB00070D088F09F5790F0B92F9927B751A0F085
:104DC000D1F0660F771F881F991F1AF0BA95C9F79F
:104DD00012C0B13081F077D0B1E0089574C0672F70
:104DE000782F8827B85F39F0B93FCCF3869577954F
:104DF0006795B395D9F73EF4909580957095619538
:104E00007F4F8F4F9F4F0895E89409C097FB3EF462
:104E100090958095709561957F4F8F4F9F4F992307
:104E2000A9F0F92F96E9BB279395F6958795779585
:104E30006795B795F111F8CFFAF4BB0F11F460FF45
:104E40001BC06F5F7F4F8F4F9F4F16C0882311F09D
:104E500096E911C0772321F09EE8872F762F05C0B1
:104E6000662371F096E8862F70E060E02AF09A954C
:104E7000660F771F881FDAF7880F9695879597F941
:104E8000089557FD9058440F551F59F05F3F71F03A
:104E90004795880F97FB991F61F09F3F79F08795A1
:104EA0000895121613061406551FF2CF4695F1DF2A
:104EB00008C0161617061806991FF1CF86957105BA
:104EC000610508940895E894BB2766277727CB01EE
:104ED00097F908950BD078C069D028F06ED018F0FB
:104EE000952309F05AC05FC01124EECFCADFA0F3AA
:104EF000959FD1F3950F50E0551F629FF001729F6F
:104F0000BB27F00DB11D639FAA27F00DB11DAA1F8D
:104F1000649F6627B00DA11D661F829F2227B00DDA
:104F2000A11D621F739FB00DA11D621F839FA00D65
:104F3000611D221F749F3327A00D611D231F849FB5
:104F4000600D211D822F762F6A2F11249F5750400C
:104F50008AF0E1F088234AF0EE0FFF1FBB1F661FA7
:104F6000771F881F91505040A9F79E3F510570F060
:104F700014C0AACF5F3FECF3983EDCF3869577959B
:104F80006795B795F795E7959F5FC1F7FE2B880F5B
:104F9000911D9695879597F9089597F99F6780E8F1
:104FA00070E060E008959FEF80EC089500240A947B
:104FB0001616170618060906089500240A941216F4
:104FC0001306140605060895092E0394000C11F427
:104FD000882352F0BB0F40F4BF2B11F460FF04C0D4
:104FE0006F5F7F4F8F4F9F4F0895991B79E004C0EB
:104FF000991F961708F0961B881F7A95C9F7809518
:10500000089597FB072E16F4009407D077FD09D07A
:105010000E941B2807FC05D03EF4909581959F4F78
:105020000895709561957F4F0895EE0FFF1F0590CD
:10503000F491E02D0994AA1BBB1B51E107C0AA1FE4
:10504000BB1FA617B70710F0A61BB70B881F991F29
:105050005A95A9F780959095BC01CD010895F999CD
:10506000FECF92BD81BDF89A992780B50895A8E139
:10507000B0E042E050E00C945228262FF999FECF80
:105080001FBA92BD81BD20BD0FB6F894FA9AF99A65
:105090000FBE019608950E943D28272F0C943E28AC
:1050A000DC01CB01FC01F999FECF06C0F2BDE1BDE8
:1050B000F89A319600B40D9241505040B8F70895D7
:0450C000F894FFCF92
:1050C400057507660843080F08DC070192012808E4
:1050D400140A321E3F4D3620AC025F022902090237
:1050E4009501AE01C701E0010102030405060708AA
:0250F4000900B1
:00000001FF
